:100000000C94380B0C94690B0C94690B0C94690BD1
:100010000C94690B0C94690B0C94690B0C94690B90
:100020000C94690B0C94690B0C94690B0C94690B80
:100030000C94690B0C94690B0C94690B0C94690B70
:100040000C94690B0C946B260C94690B0C94690B43
:100050000C94690B0C94690B0C94CE200C94817A4F
:100060000C94690B0C94A9660C94690B0C94690BA5
:100070000C94690B0C94690B0C94690B0C94690B30
:100080000C942C0C0C94690B0C94690B0C94690B5C
:100090000C94690B0C94690B0C94690B0C94690B10
:1000A0000C94690B0C94690B0C945A0C0C94690B0E
:1000B0000C94690B0C94690B0C94690B0C94880CD0
:1000C0000C94690B0C94690B0C94690B0C94690BE0
:1000D0000C94690B0C94690B0C94690B0C94690BD0
:1000E0000C94690B2821352151215E21782185212D
:1000F0009F21A121A321A521AD21977B9A7B8D7BF7
:10010000917BD17B9E7BA27BA87BAC7BB07BB67BBB
:10011000BA7BBE7BD17BC47BC87BCC7B907C957C3F
:100120009A7CA47C1D7DAE7CB67CBE7CC87CD27CD7
:10013000DC7CEB7CF57C1D7DFF7C097D137D084A12
:10014000D73B3BCE016E84BCBFFDC12F3D6C7431EB
:100150009ABD56833DDA3D00C77F11BED9E4BB4C42
:100160003E916BAAAABE000000803F05A84CCDB20C
:10017000D44EB93836A9020C50B9918688083CA6ED
:10018000AAAA2ABE000000803F000C94A1210C9472
:10019000957C0C94C87B0C94C47B0C94DC7C0C94F4
:1001A00085210C94BE7C0C94AD210C94AE7C0C94F7
:1001B000977B0C949E7B0C949D660C949A7C0C947B
:1001C000097D0C94BA7B0C94B67C0C94137D0C9432
:1001D0009F210C945E210C94BE7B0C94A87B0C9404
:1001E000A3210C94B07B0C94917B0C94A27B0C9477
:1001F000C87C0C94FF7C0C948D7B0C94D17B0C946C
:10020000D27C0C94907C0C94A47C0C9428210C94AB
:10021000EB7C0C9435210C9478210C94B67B0C94D7
:100220001D7D0C94AC7B0C949A7B0C94F57C0C9407
:10023000A5210C9451210C94CC7B48617264636FAE
:100240006465642044656661756C742053657474DC
:10025000696E6773204C6F61646564002044002000
:1002600049002020204D3330312050005049442097
:1002700073657474696E67733A00205A00205900E0
:1002800020204D323036205800486F6D65206F6653
:100290006673657420286D6D293A00204500205A48
:1002A0000020580020420020540020204D323035DC
:1002B000205300416476616E6365642076617269E3
:1002C00061626C65733A20533D4D696E20666565C9
:1002D000647261746520286D6D2F73292C20543D44
:1002E0004D696E2074726176656C20666565647216
:1002F00061746520286D6D2F73292C20423D6D6936
:100300006E696D756D207365676D656E74207469B7
:100310006D6520286D73292C20583D6D6178696DBD
:10032000756D205859206A65726B20286D6D2F738A
:10033000292C20205A3D6D6178696D756D205A20F9
:100340006A65726B20286D6D2F73292C2020453D26
:100350006D6178696D756D2045206A65726B202826
:100360006D6D2F73290020540020204D3230342031
:100370005300416363656C65726174696F6E3A2006
:10038000533D616363656C65726174696F6E2C20A7
:10039000543D7265747261637420616363656C655A
:1003A000726174696F6E00204500205A0020590068
:1003B00020204D3230312058004D6178696D756DC7
:1003C00020416363656C65726174696F6E20286D8E
:1003D0006D2F7332293A00204500205A0020590021
:1003E00020204D3230332058004D6178696D756D95
:1003F0002066656564726174657320286D6D2F7366
:10040000293A00204500205A0020590020204D396B
:100410003220580053746570732070657220756EB9
:1004200069743A006563686F3A000A00207A3A20DE
:100430000020793A200020783A200054656D7065DC
:1004400072617475726520686561746564206265A7
:1004500064207377697463686564206F66662E2014
:100460004D415854454D50207472696767657265F7
:1004700064202121003A20457874727564657220E9
:100480007377697463686564206F66662E204D49D2
:100490004E54454D502074726967676572656420DB
:1004A00021003A204578747275646572207377690B
:1004B0007463686564206F66662E204D415854450C
:1004C0004D50207472696767657265642021002051
:1004D0002D20496E76616C6964206578747275644C
:1004E0006572206E756D626572202100504944204E
:1004F0004175746F74756E652066696E69736865A1
:1005000064212050757420746865206C61737420B8
:100510004B702C204B6920616E64204B6420636F0C
:100520006E7374616E74732066726F6D2061626F9A
:10053000766520696E746F20436F6E6669677572A9
:100540006174696F6E2E6800504944204175746F64
:1005500074756E65206661696C6564212074696DCF
:10056000656F75740020403A006F6B20543A006F3D
:100570006B20423A00504944204175746F74756E87
:1005800065206661696C6564212054656D706572D3
:10059000617475726520746F6F20686967680020E8
:1005A0004B643A2000204B693A2000204B703A20DF
:1005B0000020436C6173736963205049442000201C
:1005C00054753A2000204B753A2000206D61783A2E
:1005D0002000206D696E3A200020643A20002062DD
:1005E0006961733A20004572726F723A001000C957
:1005F0000210012C014001220170011801B0010E0E
:1006000001F00104015002FA00B002F0003003E6EC
:1006100000D003DC009004D2007005C800A006BE24
:10062000000008B400B009AA00D00BA000600E962C
:100630000060118C000015820020197800C01D6E2A
:1006400000A0226400B0275A00902C5000003146D0
:1006500000E0343C0010383200903A2800603C1E24
:1006600000A03D1400803E0A00203F000070012CD5
:100670000190012701B0012201C0011D01F0011804
:10068000011002130130020E016002090190020400
:1006900001C002FF000003FA004003F5008003F0F0
:1006A00000D003EB002004E6007004E100E004DC6D
:1006B000004005D700C005D2004006CD00D006C8D6
:1006C000008007C3003008BE00F008B900C009B4BC
:1006D00000B00AAF00B00BAA00D00CA500000EA01D
:1006E00000500F9B00C01096005012910000148C17
:1006F00000C0158700B0178200B0197D00D01B78AC
:1007000000001E730040206E0090226900F02464F7
:100710000040275F0090295A00E02B5500102E5012
:100720000020304B0010324600E033410090353C51
:10073000001037370070383200A0392D00B03A2849
:1007400000A03B2300603C1E00103D1900903D14AA
:1007500000103E0F00703E0A00C03E0500003F0042
:1007600000205A3A0020593A0020583A00656E6439
:1007700073746F7073206869743A200024F4D43065
:1007800050C38E20C2A24017828B7011127A910D35
:10079000816CD90AA861E108C75866076151430610
:1007A0001E4B5D05C145A7041A411104093D98037C
:1007B000713931034036DB0265339102D430540283
:1007C000802E1D02632CEE01752AC501B028A00100
:1007D000102781018F2564012B244B01E022340175
:1007E000AC211F018D200D01801FFC00841EED0037
:1007F000971DDF00B81CD200E61BC600201BBC0002
:10080000641AB200B219A8000A19A0006A18990067
:10081000D117910040178B00B516840031167E0069
:10082000B31579003A157300C7146F0058146A00A5
:10083000EE1366008813630025135E00C7125B0089
:100840006C12570015125400C111510070114F0065
:1008500021114B00D61049008D104700461044006E
:1008600002104200C00F4000800F3E00420F3C00CB
:10087000060F3B00CB0E3800930E37005C0E3500A0
:10088000270E3400F30D3200C10D3100900D300001
:10089000600D2E00320D2D00050D2C00D90C2B0003
:1008A000AE0C2900850C29005C0C2700350C2700B4
:1008B0000E0C2600E80B2400C40B2400A00B230020
:1008C0007D0B23005A0B2100390B2100180B20004F
:1008D000F80A1F00D90A1E00BB0A1E009D0A1D004F
:1008E000800A1D00630A1C00470A1B002C0A1B001B
:1008F000110A1A00F7091A00DD091900C4091900C4
:10090000AB091900920917007B0918006309170049
:100910004C09160036091600200916000A091500B0
:10092000F5081500E0081400CC081400B8081400FD
:10093000A4081400900813007D0812006B0813002F
:10094000580812004608120034081100230811004C
:100950001208110001081100F0071000E007100054
:10096000D0071000C0071000B0070F00A10710004B
:1009700091070E0083070F0074070F0065070E0034
:1009800057070E0049070E003B070D002E070E000B
:1009900020070D0013070D0006070D00F9060C00D7
:1009A000ED060D00E0060C00D4060C00C8060C0095
:1009B000BC060C00B0060C00A4060B0099060C0047
:1009C0008D060B0082060B0077060B006C060B00F1
:1009D00061060A0057060B004C060A0042060A0090
:1009E00038060A002E060A0024060A001A060A0023
:1009F0001006090007060A00FD050900F4050900B4
:100A0000EB050900E2050900D9050900D005090038
:100A1000C7050900BE050900B5050800AD050800B9
:100A2000A50509009C050800940508008C05080030
:100A3000840508007C050800740508006C050700A3
:100A4000650508005D050700560508004E0507000E
:100A50004705070040050800380507003105070075
:100A60002A050700230507001C05060016050700D8
:100A70000F0507000805060002050700FB04060035
:100A8000F5040700EE040600E8040600E20407008F
:100A9000DB040600D5040600CF040600C9040600E6
:100AA000C3040600BD040600B7040600B104050037
:100AB000AC040600A6040600A00405009B04060082
:100AC00095040500900406008A04050085040500CD
:100AD000800406007A040500750405007004050012
:100AE0006B04050066040500610405005C04050054
:100AF00057040500520405004D0405004804050094
:100B0000430405003E0404003A04050035040500D2
:100B1000300404002C04050027040400230405000D
:100B20001E0404001A040400160405001104040045
:100B30000D0404000904050004040400000404007A
:100B4000FC030400F8030400F4030400F0030400B1
:100B5000EC030400E8030400E4030400E0030400E1
:100B6000DC030400D8030400D4030400D003040011
:100B7000CC030400C8030300C503030024F404D914
:100B8000201BC40C5C0E9804C4095F026507710148
:100B9000F405F900FB04B30048048700C1036900B1
:100BA0005803550003034500BE023A008402310099
:100BB00053022A002902250004022000E4011C003F
:100BC000C8011900AF011700980114008401130037
:100BD000710110006101100051010E0043010D0070
:100BE00036010B002B010B0020010B001501090041
:100BF0000C01090003010800FB000800F3000800D5
:100C0000EB000700E4000600DE000600D800060046
:100C1000D2000600CC000500C7000500C200050098
:100C2000BD000400B9000400B5000400B1000400D8
:100C3000AD000400A9000400A5000300A200030009
:100C40009F0004009B000300980003009500020031
:100C500093000300900003008D0002008B0003004E
:100C60008800020086000200840003008100020068
:100C70007F0002007D0002007B000200790002007C
:100C8000770001007600020074000200720001008B
:100C9000710002006F0002006D0001006C00020094
:100CA0006A0001006900020067000100660001009F
:100CB00065000100640002006200010061000100A3
:100CC000600001005F0002005D0001005C000100A7
:100CD0005B0001005A0001005900010058000100AA
:100CE00057000100560001005500010054000100AA
:100CF00053000000530001005200010051000100A8
:100D0000500001004F0001004E0000004E000100A5
:100D10004D0001004C0001004B0000004B000100A1
:100D20004A0001004900010048000000480001009D
:100D30004700010046000000460001004500000099
:100D40004500010044000100430000004300010091
:100D5000420000004200010041000000410001008B
:100D6000400001003F0000003F0001003E00000085
:100D70003E0001003D0000003D0001003C0000007D
:100D80003C0000003C0001003B0000003B00010073
:100D90003A0000003A00010039000000390001006B
:100DA0003800000038000000380001003700000063
:100DB0003700010036000000360000003600010058
:100DC000350000003500000035000100340000004F
:100DD0003400000034000100330000003300000044
:100DE0003300010032000000320000003200010038
:100DF000310000003100000031000100300000002F
:100E000030000000300001002F0000002F00000023
:100E10002F0000002F0001002E0000002E00000017
:100E20002E0001002D0000002D0000002D0000000C
:100E30002D0001002C0000002C0000002C00000000
:100E40002C0001002B0000002B0000002B000000F4
:100E50002B0001002A0000002A0000002A000000E8
:100E60002A000100290000002900000029000000DC
:100E700029000000290001002800000028000000CF
:100E800028000000280000002800010027000000C2
:100E900027000000270000002700000027000100B5
:100EA00026000000260000002600000026000000AA
:100EB000260001002500000025000000250000009C
:100EC000250000002500000025000100240000008E
:100ED0002400000024000000240000002400010081
:100EE0002300000023000000230000002300000076
:100EF0002300000023000000230001002200000066
:100F00002200000022000000220000002200000059
:100F1000220001002100000021000000210000004B
:100F2000210000002100000021000000210001003C
:100F30002000000020000000200000002000000031
:100F40002000000020000000200000002000010020
:100F50001F0000001F0000001F0000001F00000015
:100F60001F0000001F0000001F0001001E00000005
:100F70001E0000001E0000001E0000006563686F78
:100F80003A005072696E7465722073746F70706588
:100F9000642064756520746F206572726F72732EA1
:100FA0002046697820746865206572726F722061CE
:100FB0006E6420757365204D39393920746F207245
:100FC0006573746172742E202854656D706572614A
:100FD000747572652069732072657365742E205371
:100FE000657420697420616674657220726573741B
:100FF000617274696E6729005072696E746572203F
:1010000068616C7465642E206B696C6C28292063A0
:10101000616C6C656421006F6B00526573656E6472
:101020003A20000A00207A3A200020793A20002055
:10103000783A2000426564002200556E6B6E6F772F
:101040006E20636F6D6D616E643A2022005A204FEE
:101050006666736574203A20007A5F6D61783A2085
:10106000007A5F6D696E3A20005A204F666673659C
:1010700074005A204F6666736574206F6B00466972
:101080006C616D656E742064696120286D656173A3
:1010900075726564206D6D293A0046696C616D65F5
:1010A0006E742064696120286E6F6D696E616C20BA
:1010B0006D6D293A007A5F6D61783A20007A5F6D34
:1010C000696E3A2000795F6D61783A2000795F6D32
:1010D000696E3A2000785F6D61783A2000785F6D24
:1010E000696E3A2000205A3A0020593A0020436F96
:1010F000756E7420583A200020453A00205A3A0074
:1011000020593A00583A004649524D574152455FDE
:101110004E414D453A4D61726C696E2056313B200F
:10112000537072696E7465722F6772626C206D61A4
:101130007368757020666F722067656E3620464949
:10114000524D574152455F55524C3A687474707312
:101150003A2F2F6769746875622E636F6D2F457221
:10116000696B5A616C6D2F4D61726C696E2F2050E6
:10117000524F544F434F4C5F56455253494F4E3A8E
:10118000312E30204D414348494E455F545950451A
:101190003A4D656E64656C2045585452554445522D
:1011A0005F434F554E543A3120555549443A3030FB
:1011B0003030303030302D303030302D3030303035
:1011C0002D303030302D3030303030303030303025
:1011D00030300A0020423A0020453A00543A0020BC
:1011E000573A0020453A00543A002042403A002045
:1011F000403A00202F003A00205400202F002042C7
:101200003A00202F006F6B20543A002569206D6949
:101210006E2C20256920736563000A00205A3A204D
:101220000020593A200020583A20004265640020EE
:10123000643A200020623A200045716E20636F6599
:101240006666696369656E74733A20613A20004886
:101250006F6D6520582F59206265666F7265205A40
:10126000005A2070726F6265206F75742E2062655F
:101270006400486F6D6520582F59206265666F7253
:1012800065205A005072696E7465722073746F70B5
:101290007065642064756520746F206572726F726A
:1012A000732E2046697820746865206572726F72AB
:1012B00020616E6420757365204D39393920746F53
:1012C00020726573746172742E202854656D706588
:1012D0007261747572652069732072657365742E0E
:1012E000205365742069742061667465722072658C
:1012F0007374617274696E6729006F6B004E6F20A2
:101300004C696E65204E756D6265722077697468F0
:1013100020636865636B73756D2C204C617374205A
:101320004C696E653A20004E6F20436865636B73AD
:10133000756D2077697468206C696E65206E756DB7
:101340006265722C204C617374204C696E653A2082
:1013500000636865636B73756D206D69736D61748F
:1013600063682C204C617374204C696E653A2000D0
:101370004C696E65204E756D626572206973206ED2
:101380006F74204C617374204C696E65204E756DCE
:101390006265722B312C204C617374204C696E6530
:1013A0003A20004D313130002020506C616E6E6566
:1013B0007242756666657242797465733A200020E0
:1013C00046726565204D656D6F72793A20004A61FD
:1013D0006E202038203230313600436F6D70696CDA
:1013E00065643A2000286E6F6E652C206465666126
:1013F000756C7420636F6E6669672900207C2041DC
:101400007574686F723A20004A616E20203820326D
:101410003031362030313A30313A313600204C61AB
:10142000737420557064617465643A2000312E3005
:101430002E30004D61726C696E0020536F667477B8
:10144000617265205265736574002057617463682A
:10145000646F67205265736574002042726F776E07
:10146000206F75742052657365740020457874652B
:10147000726E616C20526573657400506F7765728F
:10148000557000737461727400FFFFFF0000A0408C
:101490000000A0400000004000004D4300004D430C
:1014A00000004843000000000000000000000000B1
:1014B00000004D4300004D43000048430000000081
:1014C00000000000000000006563686F3A0045728C
:1014D000726F723A0020746F6F206C6F6E672065B8
:1014E0007874727573696F6E2070726576656E744C
:1014F00065640020636F6C6420657874727573692D
:101500006F6E2070726576656E74656400656368E1
:101510006F3A000000090A02080B0C0D07060304CD
:1015200001000000000000000000000000000000BA
:10153000000000000000000000000000000000119A
:10154000100F00000000000000000000000000007C
:101550000000000000000000000102102020080828
:101560001020401020408002010201080402010105
:1015700002040810204080804020100804020180EE
:101580000402018040201008040201080402010145
:101590000204081020408001020408102040800549
:1015A000050505070508080808020202020A0A08DC
:1015B0000804040404010101010101010103030302
:1015C0000303030303040707070C0C0C0C0C0C0C9F
:1015D0000C0202020206060606060606060B0B0BA6
:1015E0000B0B0B0B0B000020002300260029002C06
:1015F000002F003200000100000301060109010074
:10160000002200250028002B002E003100340002AB
:10161000010000050108010B010000210024002742
:10162000002A002D003000330001010000040107F2
:10163000010A014E414E494E495459494E46CDCCBE
:10164000CC3D0AD7233C17B7D13877CC2B329595B0
:10165000E6241FB14F0A000020410000C8420040AC
:101660001C4620BCBE4CCA1B0E5AAEC59D749D665E
:1016700011241FBECFEFD1E2DEBFCDBF00E00CBF13
:1016800014E0A0E0B2E0EEE1F3E101E00BBF02C044
:1016900007900D92A837B107D9F72DE0A8E7B4E07D
:1016A00001C01D92A33BB207E1F716E1C0E7D6E106
:1016B00000E006C022970109FE010BBF0E94A08333
:1016C000CE36D10780E00807A9F70E94947E0C94DB
:1016D0008D890C940000CF92DF92EF92FF920F93CE
:1016E0001F93CF93DF936C018B017A01EC01C758F4
:1016F000DB4F888187FF04C0FB011182108223C069
:101700002CE02C9DC0012D9D900D11242881AC0151
:10171000420F511D27FD5A952091780430E0421761
:1017200053078CF42881AC01420F511D27FD5A95B7
:101730009A01FA01EE0FFF1FE20FF31FE458FB4F6F
:10174000208126FD19C088818F5F88838CE08C9D65
:1017500090018D9D300D11248881A901480F511DE4
:1017600087FD5A958091780490E048175907B4F4A2
:1017700088818C303CF112C02881820F911D27FD99
:101780009A95FC01EE0FFF1FE80FF91FE458FB4F7D
:10179000808160E08F730E940B7CD5CFF80180813F
:1017A0009181049680349C4918F480E49CE904C03B
:1017B000F801808191810496F701918380838FEFF6
:1017C000888341C0F801808191814881B901640F0B
:1017D000711D47FD7A95AB01FB01EE0FFF1FE40F72
:1017E000F51FE458FB4F41815281840F951FF7018B
:1017F000918380838881A901480F511D87FD5A95E7
:10180000FA01EE0FFF1FE40FF51FE458FB4F808134
:1018100086FF19C08881280F311D87FD3A95F9018F
:10182000EE0FFF1FE20FF31FE458FB4F808161E0D2
:101830008F73DF91CF911F910F91FF90EF90DF9009
:10184000CF900C940B7CDF91CF911F910F91FF9063
:10185000EF90DF90CF9008951F920F920FB60F92E6
:1018600011240BB60F922F933F934F935F936F9377
:101870007F938F939F93AF93BF93EF93FF9348E929
:1018800050E064E970E081E090E00E946B0BFF9112
:10189000EF91BF91AF919F918F917F916F915F91E8
:1018A0004F913F912F910F900BBE0F900FBE0F9055
:1018B0001F9018951F920F920FB60F9211240BB61E
:1018C0000F922F933F934F935F936F937F938F93D9
:1018D0009F93AF93BF93EF93FF9348EA50E064EA7E
:1018E00070E082E090E00E946B0BFF91EF91BF915E
:1018F000AF919F918F917F916F915F914F913F91A8
:101900002F910F900BBE0F900FBE0F901F90189548
:101910001F920F920FB60F9211240BB60F922F93B6
:101920003F934F935F936F937F938F939F93AF9367
:10193000BF93EF93FF9348E251E064E271E080E0EF
:1019400090E00E946B0BFF91EF91BF91AF919F913F
:101950008F917F916F915F914F913F912F910F9058
:101960000BBE0F900FBE0F901F901895209178041A
:101970002432A0F431E0320F30937804FC0122834A
:10198000822F90E0FC01EE0FFF1FE80FF91FE458D3
:10199000FB4F88EB9BE09283818308952FEFFC013E
:1019A00022830895CF92DF92EF92FF920F931F93BD
:1019B000CF93DF93EC018B016A0179018A81843234
:1019C00008F06CC0161617061CF47983688302C0F1
:1019D0000881198161E0802F0E94D27B8A81682F63
:1019E00070E0FB01EE0FFF1FE60FF71FE458FB4FFF
:1019F0000F739081907C902B908360E272E06C1961
:101A00007D0977FF02C06D5F7F4F7595679575956E
:101A100067956B8340E659E04E195F0957FF02C096
:101A20004D5F5F4F55954795559547954C836CE0B5
:101A30000E9426839CE0899FB001112420E030E0C1
:101A4000A901460F571FFA01EE0FFF1FE40FF51F04
:101A5000E458FB4F908196FD15C02F5F3F4F2C300F
:101A6000310571F790E08130910511F510929000E9
:101A700082E080939100109295001092940088BBB0
:101A8000809371008A8190E0FC01EE0FFF1FE80F48
:101A9000F91FE458FB4F8081806480838A81DF9145
:101AA000CF911F910F91FF90EF90DF90CF9008950D
:101AB0008230910569F41092A00082E08093A10029
:101AC0001092A5001092A40089BB80937200DACF17
:101AD000892BC1F61092200182E08093210110929F
:101AE0002501109224018ABB80937300CBCF20E69E
:101AF00039E040E252E00C94D20CFC01828190E08B
:101B0000FC01EE0FFF1FE80FF91FE458FB4F808127
:101B10008F7B80830895FC018281843270F59381EC
:101B200028E830E0291B310997FD3395220F331F38
:101B3000220F331F621773077CF0948128E532E08F
:101B4000291B310997FD3395220F331F220F331FB5
:101B5000621773070CF49B014FB7F89490E0FC01F7
:101B6000EE0FFF1FE80FF91FE458FB4F2250310919
:101B7000220F331F328321834FBF08954F925F920C
:101B80006F927F92AF92BF92CF92DF92EF92FF92CD
:101B90000F931F93CF93DF93EC01603282E07807BD
:101BA0000CF040C077FD06C0653B71052CF064EB7E
:101BB00070E002C060E070E08B8128E830E0281B14
:101BC000310987FD3395220F331F220F331F59012F
:101BD000CC24B7FCC094DC2C882777FD8095982F07
:101BE0002C8148E552E0421B510927FD5395440FD3
:101BF000551F440F551F2A01662457FC6094762C0C
:101C00007F926F925F924F9214EBE12EF12C00E0E5
:101C100010E020E030E0A9010E944D7E0F900F906F
:101C20000F900F90CE01DF91CF911F910F91FF90F8
:101C3000EF90DF90CF90BF90AF907F906F905F90CC
:101C40004F900C948B0DFC0182818F3FB1F090E09E
:101C5000FC01EE0FFF1FE80FF91FE458FB4F8181D5
:101C6000928143E0880F991F4A95E1F754E09695D9
:101C700087955A95E1F70296089580E090E00895DF
:101C8000AF92BF92CF92DF92EF92FF920F931F938A
:101C9000CF93DF93EC010E94230E2C8148E552E0A4
:101CA000421B510927FD5395440F551F440F551FE3
:101CB0007A010027F7FC0095102F4B8128E830E0CF
:101CC000241B310947FD3395220F331F220F331F89
:101CD000442737FD4095542F0196BC01882777FD96
:101CE0008095982F1F921F921F92E4EBEF93A12CE7
:101CF000B12C65010E944D7E0F900F900F900F90B8
:101D0000CB01DF91CF911F910F91FF90EF90DF906A
:101D1000CF90BF90AF900895CF93DF93C4E2D4E00B
:101D2000FE018491882341F09091C00095FFFCCF83
:101D30008093C6003196F5CFE4E1F4E084918823E6
:101D400041F09091C00095FFFCCF8093C600319682
:101D5000F5CF8091C00085FFFCCF8AE08093C6005C
:101D6000FE018491E4E2F4E0882349F09091C00000
:101D700095FFFCCF8093C60031968491F5CF4091BA
:101D8000800D5091810D6091820D7091830D8CE0DA
:101D900094E00E94D3444091840D5091850D609150
:101DA000860D7091870D89E094E00E94D3444091A4
:101DB000880D5091890D60918A0D70918B0D86E090
:101DC00094E00E94D34440918C0D50918D0D609110
:101DD0008E0D70918F0D83E094E00E94D34480912A
:101DE000C00085FFFCCF8AE08093C600FE0184918D
:101DF000E4E2F4E0882349F09091C00095FFFCCF25
:101E00008093C60031968491F5CFE9EEF3E084919A
:101E1000882341F09091C00095FFFCCF8093C600CD
:101E20003196F5CF8091C00085FFFCCF8AE080938A
:101E3000C600FE018491E4E2F4E0882349F0909129
:101E4000C00095FFFCCF8093C60031968491F5CFFA
:101E50004091900D5091910D6091920D7091930D64
:101E600080EE93E00E94D3444091940D5091950DE3
:101E70006091960D7091970D8DED93E00E94D34483
:101E80004091980D5091990D60919A0D70919B0D14
:101E90008AED93E00E94D34440919C0D50919D0D9A
:101EA00060919E0D70919F0D87ED93E00E94D34449
:101EB0008091C00085FFFCCF8AE08093C600FE01C0
:101EC0008491E4E2F4E0882349F09091C00095FF0A
:101ED000FCCF8093C60031968491F5CFE9EBF3E017
:101EE0008491882341F09091C00095FFFCCF8093AE
:101EF000C6003196F5CF8091C00085FFFCCF8AE007
:101F00008093C600FE018491E4E2F4E0882349F066
:101F10009091C00095FFFCCF8093C60031968491CC
:101F2000F5CF4091700D5091710D6091720D7091CF
:101F3000730D80EB93E00E94E5444091740D509145
:101F4000750D6091760D7091770D8DEA93E00E948A
:101F5000E5444091780D5091790D60917A0D709122
:101F60007B0D8AEA93E00E94E54440917C0D5091FC
:101F70007D0D60917E0D70917F0D87EA93E00E9448
:101F8000E5448091C00085FFFCCF8AE08093C600C5
:101F9000FE018491E4E2F4E0882349F09091C000CE
:101FA00095FFFCCF8093C60031968491F5CFE2E790
:101FB000F3E08491882341F09091C00095FFFCCF1D
:101FC0008093C6003196F5CF8091C00085FFFCCF8D
:101FD0008AE08093C600FE018491E4E2F4E0882365
:101FE00049F09091C00095FFFCCF8093C6003196D8
:101FF0008491F5CF4091680D5091690D60916A0D03
:1020000070916B0D89E693E00E94D3444091640D7A
:102010005091650D6091660D7091670D86E693E0B5
:102020000E94D3448091C00085FFFCCF8AE080935A
:10203000C600FE018491E4E2F4E0882349F0909127
:10204000C00095FFFCCF8093C60031968491F5CFF8
:10205000E3EBF2E08491882341F09091C00095FF7A
:10206000FCCF8093C6003196F5CF8091C00085FFEC
:10207000FCCF8AE08093C600FE018491E4E2F4E0A4
:10208000882349F09091C00095FFFCCF8093C60053
:1020900031968491F5CF40916C0D50916D0D60910A
:1020A0006E0D70916F0D8AEA92E00E94D3444091C8
:1020B000540D5091550D6091560D7091570D87EA52
:1020C00092E00E94D3444091A00D5091A10D6091E7
:1020D000A20D7091A30D84EA92E00E94E544409124
:1020E000600D5091610D6091620D7091630D81EAF8
:1020F00092E00E94D34440915C0D50915D0D60913F
:102100005E0D70915F0D8EE992E00E94D344409184
:10211000580D5091590D60915A0D70915B0D8BE9DE
:1021200092E00E94D3448091C00085FFFCCF8AE0FA
:102130008093C600FE018491E4E2F4E0882349F034
:102140009091C00095FFFCCF8093C600319684919A
:10215000F5CFE9E8F2E08491882341F09091C00046
:1021600095FFFCCF8093C6003196F5CF8091C000DB
:1021700085FFFCCF8AE08093C600FE018491E4E2F3
:10218000F4E0882349F09091C00095FFFCCF809344
:10219000C60031968491F5CF40919E0750919F07DC
:1021A0006091A0077091A10780E892E00E94D3445B
:1021B0004091A2075091A3076091A4077091A507D1
:1021C0008DE792E00E94D3444091A6075091A70763
:1021D0006091A8077091A9078AE792E00E94D34412
:1021E0008091C00085FFFCCF8AE08093C600FE018D
:1021F0008491E4E2F4E0882349F09091C00095FFD7
:10220000FCCF8093C60031968491F5CFECE6F2E0E6
:102210008491882341F09091C00095FFFCCF80937A
:10222000C6003196F5CF8091C00085FFFCCF8AE0D3
:102230008093C600FE01C491E4E2F4E0CC2349F0AF
:102240008091C00085FFFCCFC093C6003196C49139
:10225000F5CF4091160250911702609118027091CB
:10226000190282E692E00E94D344609112027091BA
:10227000130280911402909115020E943422AB0146
:10228000BC018FE592E00E94D34460910E027091F0
:102290000F0280911002909111020E944222AB0124
:1022A000BC018CE592E00E94D3448091C00085FF80
:1022B000FCCF8AE08093C600DF91CF910895AF9262
:1022C000BF92CF92DF92EF92FF920F931F93CF9323
:1022D000DF93CDB7DEB7E0970FB6F894DEBF0FBE41
:1022E000CDBF80E1E7EAF2E0DE01919601900D9228
:1022F0008A95E1F780E1E7EBF2E0DE01519601908B
:102300000D928A95E1F780E1E7ECF2E0DE011196AB
:1023100001900D928A95E1F76E0181E2C80ED11C01
:1023200080E8E82E8DE0F82E8E010F5E1F4F60E9E9
:102330007DE0AE014F5F5F4F90E7A92E9DE0B92E83
:1023400020E030E0F60181919191A191B1916F016E
:10235000F70181939193A193B1937F01F80181914A
:102360009191A191B1918F01FB0181939193A193DF
:10237000B193BF01FA0181919191A191B191AF0106
:10238000F50181939193A193B1935F012F5F3F4F2B
:1023900024303105B9F60E94397A80E090E8ABE349
:1023A000B5E48093680D9093690DA0936A0DB09386
:1023B0006B0D8093640D9093650DA093660DB093A3
:1023C000670D10926C0D10926D0D10926E0D1092A3
:1023D0006F0D80E29EE4A0E0B0E08093A00D9093AA
:1023E000A10DA093A20DB093A30D1092540D1092C5
:1023F000550D1092560D1092570D80E090E0A0EA16
:10240000B1E48093600D9093610DA093620DB09341
:10241000630D8DEC9CECACECBEE380935C0D909373
:102420005D0DA0935E0DB0935F0D80E090E0A0EA9B
:10243000B0E48093580D9093590DA0935A0DB0932A
:102440005B0D1092A6071092A7071092A807109292
:10245000A9071092A2071092A3071092A407109246
:10246000A50710929E0710929F071092A007109246
:10247000A1078DEC9CECACEAB0E480938B079093C1
:102480008C07A0938D07B0938E0783EC95EFA6E59C
:10249000B2E48093160290931702A0931802B093AF
:1024A000190268E471EE82EA90E40E942D226093A2
:1024B00012027093130280931402909315026FE836
:1024C00072EC8DE093E40E943B2260930E027093C5
:1024D0000F0280931002909311020E945C1880E01A
:1024E00090E0A0E8BFE380930A0290930B02A093D0
:1024F0000C02B0930D02E4E2F4E08491882341F0F1
:102500009091C00095FFFCCF8093C6003196F5CF27
:10251000EAE3F2E08491882341F09091C00095FFB6
:10252000FCCF8093C6003196F5CF8091C00085FF27
:10253000FCCF8AE08093C600E0960FB6F894DEBF29
:102540000FBECDBFDF91CF911F910F91FF90EF9004
:10255000DF90CF90BF90AF900895CF92DF92EF922F
:10256000FF920F931F93FC01408351836283738317
:102570000483158326833783C086D186E286F3865B
:102580001F910F91FF90EF90DF90CF9008954F92A1
:102590005F926F927F928F929F92AF92BF92CF92F3
:1025A000DF92EF92FF92FC016081718182819381C1
:1025B00084809580A680B780C084D184E284F3842F
:1025C0009B01AC010E9450822B013C01A5019401AA
:1025D000C501B4010E9450829B01AC01C301B2014C
:1025E0000E94A27E4B015C01A7019601C701B601C2
:1025F0000E9450829B01AC01C501B4010E94A27EE1
:10260000FF90EF90DF90CF90BF90AF909F908F9012
:102610007F906F905F904F900C94BD82CF92DF922D
:10262000EF92FF92CF93DF93EC010E94C7126B01F0
:102630007C019B01AC01688179818A819B810E9428
:10264000827F688379838A839B83A70196016C814B
:102650007D818E819F810E94827F6C837D838E83AA
:102660009F83A7019601688579858A859B850E944D
:10267000827F688779878A879B87DF91CF91FF90D8
:10268000EF90DF90CF9008954F925F926F927F927C
:102690008F929F92AF92BF92CF92DF92EF92FF9272
:1026A0000F931F93CF93DF93CDB7DEB728970FB665
:1026B000F894DEBF0FBECDBF8C01DC014D905D9064
:1026C0006D907C90139714968D909D90AD90BC90DA
:1026D00017971896CD90DD90ED90FC901B9728A150
:1026E00039A14AA15BA1C301B2010E945082698352
:1026F0007A838B839C832CA53DA54EA55FA5C50140
:10270000B4010E9450829B01AC0169817A818B8166
:102710009C810E94A27E69837A838B839C8328ADEF
:1027200039AD4AAD5BADC701B6010E9450829B0135
:10273000AC0169817A818B819C810E94A27E698330
:102740007A838B839C832CA13DA14EA15FA1C30101
:10275000B2010E9450826D837E838F83988728A95F
:1027600039A94AA95BA9C501B4010E9450829B0105
:10277000AC016D817E818F8198850E94A27E6D83E0
:102780007E838F8398872CAD3DAD4EAD5FADC70185
:10279000B6010E9450829B01AC016D817E818F81C8
:1027A00098850E94A27E6D837E838F8398872C8D6F
:1027B0003D8D4E8D5F8DC301B2010E9450822B0171
:1027C0003C0128A539A54AA55BA5C501B4010E9415
:1027D00050829B01AC01C301B2010E94A27E4B0159
:1027E0005C012CA93DA94EA95FA9C701B6010E94B1
:1027F00050829B01AC01C501B4010E94A27EF80188
:10280000608371838283938389819A81AB81BC8148
:1028100084839583A683B7838D819E81AF81B8859C
:1028200080879187A287B38728960FB6F894DEBF7A
:102830000FBECDBFDF91CF911F910F91FF90EF9011
:10284000DF90CF90BF90AF909F908F907F906F90D0
:102850005F904F900895CF93DF93EC01FB0181913E
:10286000BF01882339F09091C00095FFFCCF809381
:10287000C600F4CFE6E3F4E08491882341F0909120
:10288000C00095FFFCCF8093C6003196F5CF4881FC
:1028900059816A817B8122E030E080EC97E00E94E0
:1028A000DC68E1E3F4E08491882341F09091C0007A
:1028B00095FFFCCF8093C6003196F5CF4C815D81AA
:1028C0006E817F8122E030E080EC97E00E94DC683E
:1028D000ECE2F4E08491882341F09091C00095FFF0
:1028E000FCCF8093C6003196F5CF488559856A851F
:1028F0007B8522E030E080EC97E00E94DC68EAE231
:10290000F4E08491882341F09091C00095FFFCCFC2
:102910008093C6003196F5CFDF91CF9108950F9344
:102920001F93CF93DF93CDB7DEB72C970FB6F894F4
:10293000DEBF0FBECDBFECADFDAD80819181A28128
:10294000B381EAADFBAD4081518162817381E8AD15
:10295000F9AD008111812281338109831A832B8390
:102960003C834D835E836F83788789879A87AB87A3
:10297000BC878DB79EB784970FB6F8949EBF0FBEE5
:102980008DBFADB7BEB7119684E2FE01749601907B
:102990000D928A95E1F7CE0101960E944413898138
:1029A0009A81AB81BC81E8ADF9AD80839183A2832C
:1029B000B3838D819E81AF81B885EAADFBAD808305
:1029C0009183A283B38389859A85AB85BC85ECAD61
:1029D000FDAD80839183A283B3830FB6F894DEBFED
:1029E0000FBECDBF2C960FB6F894DEBF0FBECDBF85
:1029F000DF91CF911F910F910895FC0140E050E0CD
:102A000060E87FE34083518362837383148215827D
:102A100016821782108611861286138614861586F2
:102A200016861786408B518B628B738B148A158A9E
:102A3000168A178A108E118E128E138E148E158E92
:102A4000168E178E40A351A362A373A308952F92ED
:102A50003F924F925F926F927F928F929F92AF922E
:102A6000BF92CF92DF92EF92FF920F931F93CF937B
:102A7000DF93CDB7DEB7C454D1090FB6F894DEBFEB
:102A80000FBECDBF1C01CDA2DEA2EFA2F8A609A702
:102A90001AA72BA73CA74DA75EA76FA778ABCDA021
:102AA000DEA0EFA0F8A42DA53EA54FA558A989A5A5
:102AB0009AA5ABA5BCA5C98EDA8EEB8EFC8E8D8F48
:102AC0009E8FAF8FB8A329A33AA34BA35CA3CE01DB
:102AD000499622962FAF229723963FAF23972496AD
:102AE0004FAF249725965FAF25970E940E1380E085
:102AF00090E0A0E8BFE38D879E87AF87B88B198AE7
:102B00001A8A1B8A1C8AC701B601905822962FADDB
:102B1000229723963FAD239724964FAD2497259671
:102B20005FAD25970E94827F6D8B7E8B8F8B988FF8
:102B3000CE010D960E940E13098D1A8D2B8D3C8DA2
:102B400009AB1AAB2BAB3CAB4D8C5E8C6F8C78A079
:102B500089A09AA0ABA0BCA08D859E85AF85B889C1
:102B60008DAB9EABAFABB8AF09891A892B893C8975
:102B700009AF1AAF2BAF3CAFCD88DE88EF88F88C59
:102B8000A7019601C301B2010E94508221966CAF49
:102B90007DAF8EAF9FAF219729AD3AAD4BAD5CAD08
:102BA000C501B4010E9450829B01AC0121966CAD1D
:102BB0007DAD8EAD9FAD21970E94A17E69837A8302
:102BC0008B839C832DA93EA94FA958ADC501B401A3
:102BD0000E9450824B015C01A701960169A97AA964
:102BE0008BA99CA90E9450829B01AC01C501B40134
:102BF0000E94A17E6D837E838F83988729AD3AAD35
:102C00004BAD5CAD69A97AA98BA99CA90E945082A1
:102C10006B017C012DA93EA94FA958ADC301B2019A
:102C20000E9450829B01AC01C701B6010E94A17EA7
:102C300069877A878B879C87CE0101960E940E1345
:102C400049885A886B887C888D889E88AF88B88C24
:102C5000C980DA80EB80FC804D815E816F81788550
:102C600089859A85AB85BC85098D1A8D2B8D3C8D08
:102C700009AB1AAB2BAB3CAB0D8D1E8D2F8D38A144
:102C80000DAB1EAB2FAB38AF09A11AA12BA13CA1F4
:102C900009AF1AAF2BAF3CAF0D851E852F85388944
:102CA000F10100831183228333834482558266823B
:102CB000778280869186A286B386C486D586E6868C
:102CC000F786408B518B628B738B848B958BA68B95
:102CD000B78B09A91AA92BA93CA9008F118F228FA4
:102CE000338F0DA91EA92FA938AD048F158F268FFC
:102CF000378F09AD1AAD2BAD3CAD00A311A322A3B4
:102D000033A3C101CC5BDF4F0FB6F894DEBF0FBE1B
:102D1000CDBFDF91CF911F910F91FF90EF90DF908A
:102D2000CF90BF90AF909F908F907F906F905F906B
:102D30004F903F902F900895CF93DF93CDB7DEB79C
:102D4000FC014E815F816885798540835183628370
:102D500073834A895B896C897D8944835583668343
:102D600077834E8D5F8D68A179A1408751876287F7
:102D700073874A855B856C857D8544875587668723
:102D800077874E895F89688D798D408B518B628BF7
:102D9000738B4AA15BA16CA17DA1448B558B668B83
:102DA000778B4E855F8568897989408F518F628FD7
:102DB000738F4A8D5B8D6C8D7D8D448F558F668FA3
:102DC000778F4EA15FA168A579A540A351A362A307
:102DD00073A3DF91CF9108954F925F926F927F928C
:102DE0008F929F92AF92BF92CF92DF92EF92FF921B
:102DF0000F931F93CF93DF932C0121E736E081E0FF
:102E000090E0F90145915491441655060CF062C0CA
:102E1000AC0141505109DA01AA0FBB1FAA0FBB1F19
:102E2000A159B94FFD0165917491440F551F440F8D
:102E3000551F4359594FFA0165907490FC01EE0FEC
:102E4000FF1FEE0FFF1FE159F94FA590B490FD0150
:102E500005911491F901C591D491FA01859094904E
:102E6000882777FD8095982F0E941D806B017C013B
:102E7000B20166197709882777FD8095982F0E94FF
:102E80001D802B013C01B501601B710B882777FD6C
:102E90008095982F0E941D809B01AC01C301B20157
:102EA0000E9450822B013C01BE01681979098827D4
:102EB00077FD8095982F0E941D809B01AC01C30176
:102EC000B2010E94827F9B01AC01C701B6010E9442
:102ED000A27E11C001962C5F3F4F8D33910509F002
:102EE00090CFEFE5F7E065917491882777FD8095A5
:102EF000982F0E941D80DF91CF911F910F91FF901D
:102F0000EF90DF90CF90BF90AF909F908F907F9089
:102F10006F905F904F9008954F925F926F927F9263
:102F20008F929F92AF92BF92CF92DF92EF92FF92D9
:102F30000F931F93CF93DF932C01662371F1E6EE7D
:102F4000F5E08491882341F09091C00095FFFCCF7B
:102F50008093C6003196F5CF70E04AE050E080ECF7
:102F600097E00E94FC67EFECF4E08491882341F045
:102F70009091C00095FFFCCF8093C6003196F5CFAD
:102F80008091C00085FFFCCF8AE08093C6000E943C
:102F9000194A60E070E0CB017EC021EF35E081E0AE
:102FA00090E0F90145915491441655060CF062C029
:102FB000AC0141505109DA01AA0FBB1FAA0FBB1F78
:102FC000A151BA4FFD0165917491440F551F440FF3
:102FD000551F43515A4FFA0165907490FC01EE0F52
:102FE000FF1FEE0FFF1FE151FA4FA590B490FD01B6
:102FF00005911491F901C591D491FA0185909490AD
:10300000882777FD8095982F0E941D806B017C0199
:10301000B20166197709882777FD8095982F0E945D
:103020001D802B013C01B501601B710B882777FDCA
:103030008095982F0E941D809B01AC01C301B201B5
:103040000E9450822B013C01BE0168197909882732
:1030500077FD8095982F0E941D809B01AC01C301D4
:10306000B2010E94827F9B01AC01C701B6010E94A0
:10307000A27E11C001962C5F3F4F8032910509F06E
:1030800090CFEBE6F6E065917491882777FD809507
:10309000982F0E941D80DF91CF911F910F91FF907B
:1030A000EF90DF90CF90BF90AF909F908F907F90E8
:1030B0006F905F904F90089520911202309113020B
:1030C000409114025091150260E070E08FE793E4A4
:1030D0000E94827F6093090570930A0580930B0517
:1030E00090930C05089597FF03C080912C0504C0B0
:1030F000FC01ED5FFA4F808190E0089560912A0510
:1031000070912B05882777FD8095982F0E941D8050
:1031100020E03CEF4FE756E40E94827F20E030E061
:1031200040EA50E40E945082089560E080913705A3
:10313000909138050E948C17609333057093340585
:103140008093350590933605809131059091320535
:103150000E94EC1660932D0570932E0580932F0529
:10316000909330050E947E1860932D0270932E027A
:1031700080932F02909330028FB7F8941092290514
:103180008FBF08952F923F924F925F926F927F92DE
:103190008F929F92AF92BF92CF92DF92EF92FF9267
:1031A0000F931F93CF93DF9300D01F92CDB7DEB75D
:1031B00080912905882309F410C20E949518C090B7
:1031C0003305D0903405E0903505F0903605009138
:1031D0003B0510913C05B801882777FD8095982F15
:1031E0000E941D80A70196010E94A17E2B013C0137
:1031F0006093110570931205809313059093140545
:1032000020E030E040E251E40E947E8118160CF488
:10321000E3C020E030E040E251ECC301B2010E9483
:103220007B7F87FF04C081E080930805DFC0012B0E
:10323000D1F3809108058111C4C02091160230910C
:1032400017024091180250911902C301B2010E9465
:1032500050824B015C0160931D0570931E058093A5
:103260001F0590932005209125053091260540915A
:10327000270550912805C301B2010E94A27E2B01AF
:103280003C0100910D0510910E0520900F05309026
:1032900010059801A1010E947B7F87FD90C00091DD
:1032A000090510910A0520900B0530900C05980136
:1032B000A101B201C3010E947E8118160CF47FC0E7
:1032C0008201C801D3018093250590932605A09320
:1032D0002705B093280520911202309113024091E6
:1032E000140250911502B801C3010E9450826983F3
:1032F0007A838B839C836093190570931A0580935E
:103300001B0590931C0520912105309122054091C9
:10331000230550912405C701B6010E94A17E20918A
:103320000E0230910F0240911002509111020E9442
:10333000508220ED3CEC4CE45DE30E9450822B0176
:103340003C0123E333E343E75FE3609115057091AC
:10335000160580911705909118050E9450829B01D7
:10336000AC01C301B2010E94A27E2B013C0160931B
:1033700015057093160580931705909318052981FC
:103380003A814B815C81C501B4010E94A27EA301F8
:1033900092010E94A17E4B015C0120E030E0A90176
:1033A0000E947B7F87FD22C020E030E04FE753E49E
:1033B000C501B4010E947E811816DCF410C03101F1
:1033C00080CF1092250510922605109227051092A5
:1033D00028051092080531CF81E080930805812CE3
:1033E000912C9FE7A92E93E4B92E03C0812C912C38
:1033F0005401C0922105D0922205E0922305F0925B
:1034000024056091FF0470910005882777FD809561
:10341000982F0E941D809B01AC01C701B6010E943C
:103420007E8118161CF0109203051AC060910602E6
:1034300070910702882777FD8095982F0E941D8044
:103440009B01AC01C701B6010E947B7F87FFEBCFD8
:10345000C501B4010E94EA7F7595679560930305E5
:103460000E94CB7A00910405109105052091060574
:1034700030910705601B710B820B930B6838734109
:103480008105910508F4A9C00E94CB7A60930405D8
:10349000709305058093060590930705C0902D0550
:1034A000D0902E05E0902F05F090300520E030E020
:1034B00040E050E4C701B6010E947E8118161CF559
:1034C00020E030E046E153E4C701B6010E947B7F73
:1034D00087FF19C06091390570913A05882777FDFB
:1034E0008095982F0E941D809B01AC01C701B601F9
:1034F0000E947E8187FD03C010922C050EC08FE7CD
:1035000080932C050AC010922C059FB7F8948091E7
:1035100002018F7D809302019FBF809186078823DF
:1035200009F45BC080916F07909170072091290288
:1035300030912A02821B930B97FD45969093FC04D1
:103540008093FB048091FB049091FC0497FF05C0DD
:103550001092FC041092FB0408C0459734F084E1FB
:1035600090E09093FC048093FB04E091FB04F091C5
:10357000FC04EF58F84F6081772767FD70956C5910
:103580007F4F882777FD8095982F0E941D8020E02F
:1035900030E048EC52E40E94827F9B01AC010E9423
:1035A000508260935302709354028093550290931B
:1035B00056022AE037ED43E25CE30E947B7F87FFFF
:1035C0000CC08AE097EDA3E2BCE380935302909392
:1035D0005402A0935502B09356020F900F900F9093
:1035E0000F90DF91CF911F910F91FF90EF90DF909F
:1035F000CF90BF90AF909F908F907F906F905F9093
:103600004F903F902F900895CF92DF92EF92FF92CC
:10361000C0902D02D0902E02E0902F02F090300248
:1036200023E333E343EF5FE3C701B6010E947B7FEF
:1036300087FF09C0C0903102D0903202E09033027F
:10364000F090340211C023E333E343E550E4C701B3
:10365000B6010E947E8118163CF423E3C22EDC2CB6
:1036600023E5E22E20E4F22EA701960160913102BB
:103670007091320280913302909134020E94827FD5
:1036800020E030E048EC52E40E9450820E94EA7F41
:10369000CB01FF90EF90DF90CF900895CF93DF9311
:1036A00010920D0510920E0510920F051092100544
:1036B0002091120230911302409114025091150290
:1036C00060E070E08FE793E40E94827F60930905D9
:1036D00070930A0580930B0590930C05249A8091B2
:1036E00001018062809301018091010180648093D7
:1036F000010187ED80937A0010927E0010927D0088
:1037000080917D00806280937D0080917D00806843
:1037100080937D0080917D00806480937D0080E8AF
:1037200088BD80916E00846080936E006AEF70E0C7
:1037300080E090E00E94FA7A85E090E090930005A6
:103740008093FF0460E080910802909109020E943A
:103750008C1720E030E040EA50E40E947B7F87FF36
:103760000AC0809108029091090240979093090243
:1037700080930802E7CF83E191E090930702809362
:10378000060260E080910105909102050E948C176D
:1037900020E030E849E853E40E947E81181654F492
:1037A00080910105909102054096909302058093C7
:1037B0000105E7CFC091FD04D091FE04CE010E9427
:1037C000EC1620E030E046E153E40E947E811816BA
:1037D00034F46096D093FE04C093FD04EBCFDF91E8
:1037E000CF910895089510923C0510923B051092D8
:1037F0003A0510923905109203052C9810923A055B
:103800001092390510922C059FB7F894E2E0F1E090
:1038100080818F7D80839FBF08952F923F924F922A
:103820005F926F927F928F929F92AF92BF92CF9250
:10383000DF92EF92FF920F931F93CF93DF93CDB759
:10384000DEB7AA970FB6F894DEBF0FBECDBF6B8F61
:103850007C8F8D8F292E5A87498738A72FA30E94E6
:10386000CB7A6F8F78A389A39AA329853A851216FC
:1038700013061CF0E7EDF2E017C0EAEEF2E08191EA
:10388000882339F09091C00095FFFCCF8093C6004B
:10389000F6CF8091C00085FFFCCF04C29091C0009C
:1038A00095FFFCCF8093C60081918111F7CF809165
:1038B000C00085FFFCCF8AE08093C6000E94F31B06
:1038C00049855A858FE7452B19F080932C0502C056
:1038D000809303058F8D98A1A9A1BAA1898B9A8B9A
:1038E000AB8BBC8B8D879E87AF87B88B1D8290E496
:1038F000988FACE1A98FB6E4BA8F19A61D8A1E8AEB
:103900001F8A2FE730E040E050E029833A834B8361
:103910005C83EFE74E2E512C612C712C1BA21CA254
:103920001DA21EA231E03E8F1C861B86312C00E0BA
:1039300010E01AA680912905882309F4E1C00E94AD
:10394000951849855A85452B51F030902D050091E9
:103950002E0510912F05509130055AA709C03090BF
:1039600033050091340510913505809136058AA7FD
:10397000232D302F412F5AA569A57D898E899F89D6
:103980000E947E8118162CF039A60D8B1E8B9AA5ED
:103990009F8B232D302F412F5AA56D81788D898DD6
:1039A0009A8D0E947B7F87FD05C03D82088F198F0D
:1039B000AAA5AA8FBE8DBB2309F44FC02B8D3C8DC9
:1039C0004D8D522D632D702F812F9AA50E947E81DF
:1039D00018160CF095C00E94CB7A29893A894B8938
:1039E0005C89621B730B840B950B693873418105ED
:1039F000910508F485C0D301C20129813A814B8128
:103A00005C81821B930BA40BB50B49855A85B59538
:103A1000A79597958795452B19F080932C0502C0A3
:103A2000809303050E94CB7A6D877E878F87988B62
:103A3000DC01CB0129893A894B895C89821B930B74
:103A4000A40BB50B8BA39CA3ADA3BEA33B8D39A741
:103A50004C8D4D8B5D8D5E8B2F8A2B8D3C8D4D8DCE
:103A6000522D632D702F812F9AA50E947B7F87FF97
:103A7000EEC20E94CB7A2D853E854F855889621B08
:103A8000730B840B950B693873418105910508F41C
:103A9000DEC20E94CB7A698B7A8B8B8B9C8BDC018C
:103AA000CB012D853E854F855889821B930BA40B36
:103AB000B50B4B855C85452B09F010C189819A8136
:103AC000AB81BC81840D951DA61DB71D29853A8546
:103AD000B595A79597958795232B09F4B5C2809343
:103AE0002C054B855C854F5F5F4F5C874B875B8DFB
:103AF0005D838C8D888F9D8D998F2A8EA1E0AE8FEE
:103B000020E030E040EA51E46B8D7C8D8D8D922D6C
:103B10000E94A27E9B01AC01632D702F812F9AA57C
:103B20000E947E81181694F4E5E7F5E084918823DD
:103B300041F09091C00095FFFCCF8093C600319674
:103B4000F5CF8091C00085FFFCCFACC00E94CB7A3E
:103B50002F8D38A149A15AA1621B730B840B950BC1
:103B6000613D77408105910508F44FC049855A852C
:103B7000452B81F0E0902C05F12CEFE6F5E08491E7
:103B80008823C1F09091C00095FFFCCF8093C600C0
:103B90003196F5CFE0900305F12CE9E6F5E084914C
:103BA000882341F09091C00095FFFCCF8093C60020
:103BB0003196F5CF22E030E0432D502F612F7AA5CA
:103BC00080EC97E00E94DC68E5E6F5E084918823CC
:103BD00041F09091C00095FFFCCF8093C6003196D4
:103BE000F5CF4AE050E0B70180EC97E00E94FC6717
:103BF0008091C00085FFFCCF8AE08093C6000E94C0
:103C0000CB7A6F8F78A389A39AA30E94CB7A6B019A
:103C10007C010E94CB7A89889A88AB88BC882D85E4
:103C20003E854F855889820E931EA41EB51EC81866
:103C3000D908EA08FB08C60ED71EE81EF91E31E8AF
:103C4000C3163FE4D30632E1E306F10490F0E8E462
:103C5000F5E08491882341F09091C00095FFFCCF5E
:103C60008093C6003196F5CF8091C00085FFFCCFD0
:103C700019C04B855C858FA198A5841795070CF01A
:103C800059CEECEEF4E08491882341F09091C0008D
:103C900095FFFCCF8093C6003196F5CF8091C00090
:103CA00085FFFCCF8AE08093C600AA960FB6F894F1
:103CB000DEBF0FBECDBFDF91CF911F910F91FF905F
:103CC000EF90DF90CF90BF90AF909F908F907F90BC
:103CD0006F905F904F903F902F9008958BA09CA085
:103CE000ADA0BEA0880E991EAA1EBB1E2BA13CA192
:103CF0004DA15EA1281B390B4A0B5B0BCA01B90110
:103D000029813A814B815C810E941683A50194012F
:103D10000E946883240D351D461D571D2431310531
:103D20004105510504F129013A013CEE43165104C5
:103D3000610471042CF06BEE462E512C612C712C19
:103D400040E84416510461047104DCF08EEF90E009
:103D5000A0E0B0E084199509A609B70989839A8380
:103D6000AB83BC8312C054E1452E512C612C712CC5
:103D700024E130E040E050E029833A834B835C83C8
:103D800004C049825A826B827C82EEEDF5E0849118
:103D9000882341F09091C00095FFFCCF8093C6002E
:103DA0003196F5CF2AE030E0B301A20180EC97E034
:103DB0000E94D567E9EDF5E08491882341F0909168
:103DC000C00095FFFCCF8093C6003196F5CF2AE066
:103DD00030E049815A816B817C8180EC97E00E94C0
:103DE000D567E2EDF5E08491882341F09091C00021
:103DF00095FFFCCF8093C6003196F5CF22E030E0EE
:103E00004D81588D698D7A8D80EC97E00E94DC6839
:103E1000EBECF5E08491882341F09091C00095FF90
:103E2000FCCF8093C6003196F5CF22E030E049A563
:103E30005D896E897F8980EC97E00E94DC688091C3
:103E4000C00085FFFCCF8AE08093C6002B853C85AF
:103E5000233031050CF432CE69817A818B819C81CB
:103E60000E941D8020E030E040E850E40E94508233
:103E70006B017C012D81388D498D5A8D69A57D8915
:103E80008E899F890E94A17E20ED3FE049E450E4A5
:103E90000E94508220E030E040E05FE30E945082C8
:103EA0009B01AC01C701B6010E94827F6B017C01BE
:103EB000C501B4010E941D8020E030E04AE754E4CF
:103EC0000E94827F4B015C01E5ECF5E08491882340
:103ED00041F09091C00095FFFCCF8093C6003196D1
:103EE000F5CF22E030E0B701A60180EC97E00E9418
:103EF000DC68EFEBF5E08491882341F09091C000FD
:103F000095FFFCCF8093C6003196F5CF22E030E0DC
:103F1000B501A40180EC97E00E94DC688091C000AC
:103F200085FFFCCF8AE08093C6002AE939E949E1A0
:103F30005FE3C701B6010E9450826B017C019B01C7
:103F4000AC010E94A27EA50194010E94827F6D8334
:103F50007E838F839887A5019401C701B6010E94D3
:103F6000508220E030E040E05EE30E9450824B014E
:103F70005C01E1EBF5E08491882341F09091C00071
:103F800095FFFCCF8093C6003196F5CF8091C0009D
:103F900085FFFCCF8AE08093C600EBEAF5E08491D0
:103FA000882341F09091C00095FFFCCF8093C6001C
:103FB0003196F5CF22E030E0B701A60180EC97E022
:103FC0000E94DC688091C00085FFFCCF8AE080936E
:103FD000C600E5EAF5E08491882341F09091C000A5
:103FE00095FFFCCF8093C6003196F5CF22E030E0FC
:103FF0004D815E816F81788580EC97E00E94DC685E
:104000008091C00085FFFCCF8AE08093C600EFE975
:10401000F5E08491882341F09091C00095FFFCCF9A
:104020008093C6003196F5CF22E030E0B501A401BF
:1040300080EC97E00E94DC688091C00085FFFCCF97
:104040008AE08093C6003ACD809303054ACD1E8E48
:1040500057CDCF93C82F0E94F31B0E946C4D811146
:1040600030C0E6EEF5E09491992341F08091C000D4
:1040700085FFFCCF9093C6003196F5CF6C2F70E092
:104080004AE050E080EC97E00E94FC678091C0001D
:1040900085FFFCCF8AE08093C600E2EAF4E08491D9
:1040A000882341F09091C00095FFFCCF8093C6001B
:1040B0003196F5CF8091C00085FFFCCF8AE08093D8
:1040C000C600CF910C94314DCF93C82F0E94F31BA3
:1040D0000E946C4D811130C0E6EEF5E09491992379
:1040E00041F08091C00085FFFCCF9093C6003196CF
:1040F000F5CF6C2F70E04AE050E080EC97E00E9432
:10410000FC678091C00085FFFCCF8AE08093C600E9
:10411000E5E7F4E08491882341F09091C00095FF99
:10412000FCCF8093C6003196F5CF8091C00085FF0B
:10413000FCCF8AE08093C600CF910C94314D9FB79D
:10414000F894809102018F7D809302019FBF0E94AD
:104150006C4D811121C0E6EEF5E08491882341F099
:104160009091C00095FFFCCF8093C6003196F5CFAB
:10417000EBE3F4E08491882341F09091C00095FF37
:10418000FCCF8093C6003196F5CF8091C00085FFAB
:10419000FCCF8AE08093C6000C94314D1F920F92A1
:1041A0000FB60F9211240BB60F922F933F934F939C
:1041B0005F936F937F938F939F93AF93BF93EF938F
:1041C000FF938091050281111CC0809103058093AB
:1041D000FA04882311F02C9A01C02C9880912C05A8
:1041E0008093F9049FB7882329F0F8948091020105
:1041F000806204C0F894809102018F7D8093020157
:104200009FBF9091FA0480910502981708F42C98AA
:104210009091F90480910502981740F49FB7F894A3
:10422000809102018F7D809302019FBF80910502E2
:104230008F5F8F77809305028091040290E08B302E
:10424000910508F08CC0FC01EE58FF4F0C94878359
:1042500088E080937B0085E480937C0080917A00E5
:10426000806480937A0081E019C0209178003091B9
:1042700079008091F5049091F604A091F704B09133
:10428000F804820F931FA11DB11D8093F504909334
:10429000F604A093F704B093F80482E0809304023C
:1042A0005EC088E080937B0086E480937C008091F0
:1042B0007A00806480937A0083E0F0CF20917800C8
:1042C000309179008091F1049091F204A091F3046F
:1042D000B091F404820F931FA11DB11D8093F104CE
:1042E0009093F204A093F304B093F40484E0D6CF47
:1042F00088E080937B0087E480937C0080917A0043
:10430000806480937A0085E0C9CF20917800309155
:1043100079008091ED049091EE04A091EF04B091AA
:10432000F004820F931FA11DB11D8093ED049093A3
:10433000EE04A093EF04B093F00486E0AFCF87E0E3
:10434000ADCF88E0ABCF89E0A9CF10920402809175
:10435000EC048F5F8093EC0402C010920402809101
:10436000EC04803108F466C080912905811110C0E9
:104370008091F5049091F604909338058093370569
:104380008091F1049091F20490933205809331056D
:1043900081E0809329051092EC041092F5041092AC
:1043A000F6041092F7041092F8041092ED041092A3
:1043B000EE041092EF041092F0041092E8041092B0
:1043C000E9041092EA041092EB041092F1041092A6
:1043D000F2041092F3041092F40420913705309106
:1043E00038058091010590910205821793071CF012
:1043F00080E00E9429202091370530913805809176
:10440000080290910902281739071CF080E00E94E9
:10441000642020913105309132058091FD04909106
:10442000FE048217930734F010923A051092390572
:104430000E949F20FF91EF91BF91AF919F918F912B
:104440007F916F915F914F913F912F910F900BBE94
:104450000F900FBE0F901F9018952CEA35EC47E295
:104460005EE30E94508208952CEA35EC47E25EE359
:104470000E94827F08952CEA35EC47E25EE30E94B9
:10448000827F08952CEA35EC47E25EE30E94508279
:1044900008952F923F924F925F926F927F928F92E8
:1044A0009F92AF92BF92CF92DF92EF92FF920F93C3
:1044B0001F93CF93DF93CDB7DEB7C155D1090FB6A8
:1044C000F894DEBF0FBECDBF1C0178A36F8F4A01E9
:1044D0002DAB0FAB2A96EFAE2A972E96ACAEBDAEA3
:1044E000CEAEDFAE2E9734E0239F50011124FC01A5
:1044F000EA0DFB1D80819181A281B3818F8B988F02
:10450000A98FBA8FDA01AA0DBB1DBEAFADAF4D901A
:104510005D906D907C90A30192016F89788D898D5B
:104520009A8D0E94A27E23966CAF7DAF8EAF9FAF17
:104530002397B4E00B9F80011124F101E00FF11FDC
:10454000208131814281538129A33AA34BA35CA3EB
:10455000A401400F511F25965FAF4EAF2597DA019A
:10456000CD90DD90ED90FC90A701960169A17AA114
:104570008BA19CA10E94A27E29966CAF7DAF8EAFCD
:104580009FAF29972A96EFAD2A97B4E0EB9FC00121
:104590001124F101E80FF91F2081318142815381FB
:1045A0002B8F3C8F4D8F5E8FEF8DF8A1E80FF91F99
:1045B00060817181828193810E94A17E6DA37EA31F
:1045C0008FA398A7AF8DB8A11C968D919D910D904A
:1045D000BC91A02D62968CAF9DAFAEAFBFAF62977E
:1045E000D1011C962D913D914D915C911F9729A76A
:1045F0003AA74BA75CA777FA709477F87094A70155
:10460000960150582B8B3C8B4D8B5E8BEF8DF8A118
:10461000EA0DFB1D80819181A281B3818DA79EA7A8
:10462000AFA7B8AB23962CAD3DAD4EAD5FAD239794
:10463000BC01CD010E94A17E6B017C01EF8DF8A130
:10464000E00FF11F208131814281538129AB3AABC8
:104650004BAB5CAB29962CAD3DAD4EAD5FAD299714
:1046600069A97AA98BA99CA90E94A17E4B015C0132
:10467000A7019601C301B2010E94508269AF7AAFCF
:104680008BAF9CAFA50194016B897C898D899E8934
:104690000E9450829B01AC0169AD7AAD8BAD9CAD9F
:1046A0000E94A27E69AF7AAF8BAF9CAFA501940147
:1046B000C301B2010E9450824B015C01A701960127
:1046C0006B897C898D899E890E9450829B01AC01F7
:1046D000C501B4010E94A17E29AD3AAD4BAD5CADE0
:1046E0000E94157F6B017C0120E030E0A9010E944F
:1046F0007B7F87FF0AC02BED3FE049EC50E4C70108
:10470000B6010E94A27E6B017C01AC968FADAC9786
:10471000882351F02BED3FE049EC50E4C701B6018E
:104720000E94A17E6B017C012DA53EA54FA558A935
:104730006F89788D898D9A8D0E947B7F81111FC032
:1047400029A93AA94BA95CA969A17AA18BA19CA12D
:104750000E947B7F811113C020E030E0A901C701D6
:10476000B6010E947B7F81110AC02BED3FE049EC2E
:1047700050E4C701B6010E94A27E6B017C01AB969A
:104780002CAD3DAD4EAD5FADAB97C701B6010E94FC
:1047900050822DA13EA14FA158A55F770E948B8129
:1047A0004B015C012FE632E143E85AE30E947B7F34
:1047B00087FDD8C1C501B4010E9458800E94EF7FD7
:1047C0007AA369A36115710521F481E090E09AA3B1
:1047D00089A3A9A1BAA1BD0180E090E00E941B803D
:1047E0004B015C019B01AC01C701B6010E94827FB5
:1047F0006F8B788F898F9A8FA50194016DA17EA10F
:104800008FA198A50E94827F6DA77EA78FA798ABE6
:1048100029A53AA54BA55CA562966CAD7DAD8EAD84
:104820009FAD62970E94A17EA50194010E94827FA4
:1048300069AB7AAB8BAB9CAB20E030E040E05FE350
:104840006F89788D898D9A8D0E9450822F89388D3D
:10485000498D5A8D0E9450829B01AC0160E070E04E
:1048600080E89FE30E94A17E6DA37EA38FA398A7FB
:10487000CE010196FC012A962FAD2A97B4E02B9F1A
:10488000E00DF11D11242B8D3C8D4D8D5E8D20830F
:1048900031834283538329A53AA54BA55CA52D8777
:1048A0003E874F87588B1B8E22242394312CAC01DA
:1048B0009DA984E0989F400D511D11245EAB4DAB26
:1048C000A1E0B0E0AC0FBD1F3FA924E0329FA00DD6
:1048D000B11D1124B8AFAFABFAA7E9A7AE01445997
:1048E0005F4F5A8B498BE9A1FAA12E163F0608F0BB
:1048F00013C15B8D59310CF040C02DA13EA14FA1D9
:1049000058A56B897C898D899E890E9450826B0194
:104910007C012F89388D498D5A8DC301B2010E94C7
:104920005082A70196010E94A27E7B018C012DA1DD
:104930003EA14FA158A5C301B2010E9450824B0174
:104940005C012F89388D498D5A8D6B897C898D89C1
:104950009E890E9450829B01AC01C501B4010E9456
:10496000A17E2B013C018B8D8F5F8B8FA701B8013E
:104970004B8B5C8B6D8B7E8B66C0B10180E090E0D1
:104980000E941B802F89388D498D5A8D0E9450823C
:104990006B017C010E947F7F6B8B7C8B8D8B9E8B50
:1049A000C701B6010E94B3824B015C01ADADBEAD43
:1049B000CD90DD90ED90FC90F7FAF094F7F8F0943C
:1049C0002596AEADBFAD25972D913D914D915C9152
:1049D0002B8F3C8F4D8F5E8F2B893C894D895E8953
:1049E000C701B6010E9450822B013C01A501940130
:1049F0006B8D7C8D8D8D9E8D0E9450829B01AC01B4
:104A0000C301B2010E94A27E2B013C01A5019401C9
:104A1000C701B6010E9450826B017C012B893C8941
:104A20004D895E896B8D7C8D8D8D9E8D0E9450820F
:104A30009B01AC01C701B6010E94A17E6B8B7C8BF0
:104A40008D8B9E8B1B8EA301920123966CAD7DAD49
:104A50008EAD9FAD23970E94A27EEDA9FEA9608333
:104A60007183828393832B893C894D895E89299642
:104A70006CAD7DAD8EAD9FAD29970E94A27EAFA992
:104A8000B8AD6D937D938D939C9313972DA53EA503
:104A90004FA558A9E9A5FAA560817181828193810A
:104AA0000E94A27EA9A5BAA56D937D938D939C9338
:104AB000139729A93AA94BA95CA96D857E858F8595
:104AC00098890E94A27E6D877E878F87988BCE0102
:104AD00001960E941B48E984FA840B851C852D8170
:104AE0003E814F81588569817A818B819C81BA8909
:104AF000BF93E989EF932E968CAC9DACAEACBFAC66
:104B00002E97DE011D966D010E94056EBFEF2B1AD8
:104B10003B0A0F900F90E7CECF8CD8A0FCE0CF0ED1
:104B2000D11CAF8DB8A11896ED90FD900D911C9100
:104B30001B9714962D913D914D915C9117976D9116
:104B40007D918D919C91FE01E459FF4FFF93EF936E
:104B50002E968CAC9DACAEACBFAC2E970E94056E71
:104B60000F900F90CF5ADF4F0FB6F894DEBF0FBEF5
:104B7000CDBFDF91CF911F910F91FF90EF90DF900C
:104B8000CF90BF90AF909F908F907F906F905F90ED
:104B90004F903F902F90089580915505811109C045
:104BA00080915405811105C080915305811101C088
:104BB0000895ECE7FFE08491882341F09091C000D4
:104BC00095FFFCCF8093C6003196F5CFEDE6F7E078
:104BD0008491882341F09091C00095FFFCCF809391
:104BE000C6003196F5CF809155058823D1F06091AC
:104BF00056057091570580915805909159050E946E
:104C00001D802091800D3091810D4091820D509139
:104C1000830D0E94827FAB01BC0189E697E00E9470
:104C2000D344809154058823D1F060915A05709146
:104C30005B0580915C0590915D050E941D8020912F
:104C4000840D3091850D4091860D5091870D0E9405
:104C5000827FAB01BC0185E697E00E94D34480913E
:104C600053058823D1F060915E0570915F058091B6
:104C70006005909161050E941D802091880D309102
:104C8000890D40918A0D50918B0D0E94827FAB015E
:104C9000BC0181E697E00E94D3448091C00085FF6B
:104CA000FCCF8AE08093C6001092550510925405FF
:104CB00010925305089510925505109254051092C4
:104CC0005305089580931E020895EFE6F0E0808179
:104CD0008260808308951F920F920FB60F92112465
:104CE0000BB60F920F931F932F933F934F935F93A6
:104CF0006F937F938F939F93AF93BF93EF93FF93A4
:104D00008091860590918705892B09F086C1909145
:104D10004B0880914A08981771F0E0914A088DE499
:104D2000E89FF0011124E45BF74FDF01A45BBF4F64
:104D300081E08C9302C0E0E0F0E0F0938705E0931F
:104D40008605309709F463C1DF01A45BBF4F81E0A2
:104D50008C931092690510926A0510926B0510925F
:104D60006C0560AD71AD61349CE9790728F461325E
:104D70009EE4790748F002C060E47CE97695679587
:104D80007695679584E007C0613197E2790730F046
:104D90007695679582E08093660507C080936605E7
:104DA0006032710510F460E270E0605271096115C3
:104DB00088E07807D0F0872F9927880F991F880FF0
:104DC000991F8458944FFC01329645915491AA271B
:104DD000659F9001649F210D3A1F06942A1F3A1F78
:104DE0001124FC01859194911DC0CB019695879566
:104DF0008C7F8458984FFC01459154910296FC0198
:104E000085919491FB01E770FF278E9F90018F9F02
:104E1000300D9E9F300D1124E3E036952795EA95DD
:104E2000E1F7CA01821B930B84369105A0F4E4E1FB
:104E3000F3E08191882339F09091C00095FFFCCF79
:104E40008093C600F6CF4AE050E080EC97E00E94E5
:104E50003E6884E690E090936505809364058091B8
:104E60006605992787FD9095909363058093620569
:104E7000E0918605F091870564AD75AD7093680586
:104E80006093670561349CE9790728F461328EE408
:104E9000780748F002C060E47CE9769567957695DE
:104EA000679584E007C0613197E2790730F0769525
:104EB000679582E08093660508C081E0809366056F
:104EC0006032710510F460E270E0605271096115A2
:104ED00088E07807E0F0872F9927880F991F880FBF
:104EE000991F8458944FFC01329625913491AA273A
:104EF000639FA001629F410D5A1F06944A1F5A1FCB
:104F00001124FC0125913491241B350B1EC0CB01CB
:104F1000969587958C7F8458984FFC012591349104
:104F20000296FC0145915491FB01E770FF274E9FCB
:104F3000C0014F9F900D5E9F900D1124F3E0969558
:104F40008795FA95E1F7281B390B24363105A0F433
:104F5000E4E1F3E08191882339F09091C00095FF5E
:104F6000FCCF8093C600F6CF4AE050E080EC97E09B
:104F70000E943E6824E630E0C901A0E0B0E08093E2
:104F80006D0590936E05A0936F05B09370053093F7
:104F9000890020938800E0918605F091870580893B
:104FA0009189A289B389B695A79597958795B0956C
:104FB000A095909581959F4FAF4FBF4F80938105EE
:104FC00090938205A0938305B093840580937D051B
:104FD00090937E05A0937F05B0938005809379051B
:104FE00090937A05A0937B05B0937C05809375051B
:104FF00090937605A0937705B0937805109271058C
:1050000010927205109273051092740506C080ED1F
:1050100097E09093890080938800E0918605F09155
:105020008705309709F471C580A18093850580FFBD
:1050300003C0899A8FEF02C0899881E080931A0299
:105040008091850581FF03C08F9A8FEF02C08F98F2
:1050500081E080931B022091850530911E0220FF84
:105060003BC0332309F471C0659902C080E031C0B0
:1050700080915205882361F1E0918605F0918705C2
:1050800080819181A281B381181619061A061B0628
:10509000FCF480913D0590913E05A0913F05B091B3
:1050A00040058093560590935705A0935805B093FB
:1050B000590581E08093550580899189A289B3893A
:1050C0008093710590937205A0937305B093740556
:1050D00081E08093520539C03323B9F14CB151E0DE
:1050E00042954170452779F180915105882359F106
:1050F000E0918605F091870580819181A281B3813D
:10510000181619061A061B06F4F480913D059091B5
:105110003E05A0913F05B0914005809356059093C0
:105120005705A0935805B0935905509355058089AC
:105130009189A289B3898093710590937205A09398
:105140007305B09374054093510521FF3DC033238F
:1051500009F473C08091030181FD02C080E031C079
:1051600080915005882361F1E0918605F0918705D3
:1051700084819581A681B781181619061A061B0627
:10518000FCF48091410590914205A0914305B091B6
:10519000440580935A0590935B05A0935C05B093FA
:1051A0005D0581E08093540580899189A289B38946
:1051B0008093710590937205A0937305B093740565
:1051C00081E08093500539C03323B9F13091030158
:1051D000317041E0342779F180914F05882359F1EE
:1051E000E0918605F091870584819581A681B7813C
:1051F000181619061A061B06F4F4809141059091C1
:105200004205A0914305B091440580935A059093BF
:105210005B05A0935C05B0935D05409354058089C0
:105220009189A289B3898093710590937205A093A7
:105230007305B093740530934F059FB722FF47C0A5
:10524000F89480910B01826080930B019FBF8FEFD8
:1052500080931C0280911E02882309F47DC04B9923
:1052600002C080E031C080914E05882361F1E09159
:105270008605F091870580859185A285B3851816EE
:1052800019061A061B06FCF4809145059091460507
:10529000A0914705B091480580935E0590935F0506
:1052A000A0936005B093610581E0809353058089E8
:1052B0009189A289B3898093710590937205A09317
:1052C0007305B093740581E080934E0545C0F89452
:1052D00080910B018D7F80930B019FBF31E0309354
:1052E0001C0280911E028823B9F129B122FB2227DA
:1052F00020F9232779F180914D05882359F1E09118
:105300008605F091870580859185A285B38518165D
:1053100019061A061B06F4F480914505909146057E
:10532000A0914705B091480580935E0590935F0575
:10533000A0936005B09361053093530580899189EE
:10534000A289B3898093710590937205A093730528
:10535000B093740520934D058091850583FF03C0AC
:1053600016988FEF02C0169A81E080931D0220E00C
:105370008091660528170CF0BCC18091C00087FFA2
:1053800019C03091C6004091410850914208CA01AD
:1053900001968F779927609143087091440886178A
:1053A000970741F0FA01EF53F84F3083909342088A
:1053B00080934108E0918605F091870580918105F1
:1053C00090918205A0918305B0918405408151811F
:1053D00062817381840F951FA61FB71F809381057B
:1053E00090938205A0938305B0938405181619063F
:1053F0001A061B06CCF5889AE0918605F091870580
:105400008091810590918205A0918305B0918405DA
:105410004089518962897389841B950BA60BB70B50
:105420008093810590938205A0938305B0938405B2
:1054300040911A0280913D0590913E05A0913F0553
:10544000B0914005552747FD5095652F752F840F66
:10545000951FA61FB71F80933D0590933E05A0930F
:105460003F05B09340058898E0918605F091870547
:1054700080917D0590917E05A0917F05B09180057A
:105480004481558166817781840F951FA61FB71FC0
:1054900080937D0590937E05A0937F05B093800552
:1054A000181619061A061B06CCF58E9AE091860589
:1054B000F091870580917D0590917E05A0917F05F3
:1054C000B09180054089518962897389841B950B4D
:1054D000A60BB70B80937D0590937E05A0937F0567
:1054E000B093800540911B02809141059091420547
:1054F000A0914305B0914405552747FD5095652F70
:10550000752F840F951FA61FB71F80934105909399
:105510004205A0934305B09344058E98E09186051B
:10552000F09187058091790590917A05A0917B058E
:10553000B0917C054085518562857385840F951FE8
:10554000A61FB71F8093790590937A05A0937B05DA
:10555000B0937C05181619061A061B060CF047C0F6
:105560009FB7F89480910B01886080930B019FBFD7
:10557000E0918605F09187058091790590917A05F3
:10558000A0917B05B0917C0540895189628973891E
:10559000841B950BA60BB70B8093790590937A0526
:1055A000A0937B05B0937C0540911C02809145053A
:1055B00090914605A0914705B0914805552747FDB4
:1055C0005095652F752F840F951FA61FB71F8093C9
:1055D000450590934605A0934705B09348059FB7AE
:1055E000F89480910B01877F80930B019FBFE0911E
:1055F0008605F09187058091750590917605A091BB
:105600007705B09178054485558566857785840F43
:10561000951FA61FB71F8093750590937605A093DD
:105620007705B0937805181619061A061B06CCF5EF
:10563000149AE0918605F091870580917505909107
:105640007605A0917705B0917805408951896289E6
:105650007389841B950BA60BB70B809375059093EC
:105660007605A0937705B093780540911D0280914F
:10567000490590914A05A0914B05B0914C055527DD
:1056800047FD5095652F752F840F951FA61FB71FD7
:105690008093490590934A05A0934B05B0934C0520
:1056A00014988091710590917205A0917305B09145
:1056B00074050196A11DB11D80937105909372052B
:1056C000A0937305B09374054091710550917205D4
:1056D0006091730570917405E0918605F0918705DE
:1056E00080899189A289B389481759076A077B077E
:1056F000B0F0409171055091720560917305709101
:105700007405E0918605F091870584899589A689BD
:10571000B78984179507A607B70718F4DAC02F5F73
:1057200027CE40916D0550916E0560916F05709187
:105730007005048D158D268D378DAA27419FB12DBB
:10574000529FC001629F900D619F800D911D429FED
:10575000B00D811D9A1F519FB00D811D9A1F609F32
:10576000B00D811D9A1F509FB10D8A1F9A1FB695CB
:105770008A1F9A1F112444AD55AD480F591F5093ED
:1057800068054093670580AD91ADA2ADB3AD60E013
:1057900070E084179507A607B70720F49093680573
:1057A00080936705609167057091680561349CE995
:1057B000790728F461328EE4780748F002C060E48B
:1057C0007CE9769567957695679584E007C06131A9
:1057D00097E2790730F07695679582E080936605C9
:1057E00008C081E0809366056032710510F460E2C4
:1057F00070E060527109611588E07807E0F0872F4A
:105800009927880F991F880F991F8458944FFC017E
:10581000329625913491AA27639FA001629F410D82
:105820005A1F06944A1F5A1F1124FC0125913491D6
:10583000241B350B1EC0CB01969587958C7F845811
:10584000984FFC01259134910296FC0145915491A9
:10585000FB01E770FF274E9FC0014F9F900D5E9F99
:10586000900D112413E0969587951A95E1F7281B62
:10587000390B24363105A0F4E4E1F3E0819188236B
:1058800039F09091C00095FFFCCF8093C600F6CF11
:105890004AE050E080EC97E00E943E6824E630E069
:1058A000309389002093880080916D0590916E055A
:1058B000A0916F05B0917005820F931FA11DB11DBE
:1058C00080936D0590936E05A0936F05B09370055E
:1058D000F7C0409171055091720560917305709108
:1058E0007405808D918DA28DB38D84179507A607C1
:1058F000B70708F0D9C04091690550916A056091D9
:105900006B0570916C05048D158D268D378DAA273A
:10591000419FB12D529FC001629F900D619F800DEC
:10592000911D429FB00D811D9A1F519FB00D811D89
:105930009A1F609FB00D811D9A1F509FB10D8A1F45
:105940009A1FB6958A1F9A1F1124209167053091DE
:105950006805E05CFF4F2817390718F42081318172
:1059600002C0281B390B80819181A281B381A901DA
:1059700060E070E0481759076A077B0708F49C014C
:1059800021349CE9390728F421328EE4380748F0A5
:1059900002C020E43CE9369527953695279584E0AA
:1059A00007C0213197E2390730F03695279582E01C
:1059B0008093660508C081E080936605203231053A
:1059C00010F420E230E0B90160527109611588E0FD
:1059D0007807E0F0872F9927880F991F880F991F64
:1059E0008458944FFC01329625913491AA27639FE5
:1059F000A001629F410D5A1F06944A1F5A1F11248D
:105A0000FC0125913491241B350B1EC0CB019695CA
:105A100087958C7F8458984FFC012591349102968C
:105A2000FC0145915491FB01E770FF274E9FC00197
:105A30004F9F900D5E9F900D112443E096958795A2
:105A40004A95E1F7281B390B24363105A0F4E4E12F
:105A5000F3E08191882339F09091C00095FFFCCF4D
:105A60008093C600F6CF4AE050E080EC97E00E94B9
:105A70003E6824E630E030938900209388008091CE
:105A8000690590916A05A0916B05B0916C05820F34
:105A9000931FA11DB11D8093690590936A05A09382
:105AA0006B05B0936C050CC0809164059091650501
:105AB00090938900809388008091620580936605A9
:105AC0004091710550917205609173057091740554
:105AD000E0918605F091870580899189A289B38933
