:100000000C94E30A0C94140B0C94140B0C94140B26
:100010000C94140B0C94140B0C94140B0C94140BE4
:100020000C94140B0C94140B0C94140B0C94140BD4
:100030000C94140B0C94140B0C94140B0C94140BC4
:100040000C94140B0C94B6610C94140B0C94140BBC
:100050000C94140B0C94140B0C94DB730C94727BA7
:100060000C94140B0C943B350C94140B0C94140B43
:100070000C94140B0C94140B0C94140B0C94140B84
:100080000C94BD5E0C94140B0C94140B0C94140B78
:100090000C94140B0C94140B0C94140B0C94447AC5
:1000A0000C94140B0C94140B0C94EA5E0C94140B2B
:1000B0000C94140B0C94140B0C94140B0C94175FED
:1000C0000C94140B0C94140B0C94140B0C94140B34
:1000D0000C94140B0C94140B0C94140B0C94140B24
:1000E0000C94140B357442745E746B748574927442
:1000F000AC74AE74B074B274BA74957C9A7C9F7C04
:10010000A97CB37C2C7DBD7CC57CCD7CD77CE17C7F
:10011000EB7CFA7C047D2C7D0E7D187D227D4D7D4F
:10012000507D3F7D437D497D877D547D587D5E7D3B
:10013000627D667D6C7D707D747D877D7A7D7E7D40
:10014000827D084AD73B3BCE016E84BCBFFDC12FE8
:100150003D6C74319ABD56833DDA3D00C77F11BEB8
:10016000D9E4BB4C3E916BAAAABE000000803F05BB
:10017000A84CCDB2D44EB93836A9020C50B99186EC
:1001800088083CA6AAAA2ABE000000803F00486159
:100190007264636F6465642044656661756C742085
:1001A00053657474696E6773204C6F616465640095
:1001B0002044002049002020204D333031205000C1
:1001C0005049442073657474696E67733A00205A0D
:1001D0000020590020204D323036205800486F6DE5
:1001E00065206F666673657420286D6D293A00205E
:1001F0004500205A002058002042002054002020B2
:100200004D323035205300416476616E6365642061
:100210007661726961626C65733A20533D4D696E17
:1002200020666565647261746520286D6D2F732981
:100230002C20543D4D696E2074726176656C206689
:100240006565647261746520286D6D2F73292C209B
:10025000423D6D696E696D756D207365676D656E84
:10026000742074696D6520286D73292C20583D6DAC
:100270006178696D756D205859206A65726B202808
:100280006D6D2F73292C20205A3D6D6178696D7535
:100290006D205A206A65726B20286D6D2F73292C92
:1002A0002020453D6D6178696D756D2045206A653A
:1002B000726B20286D6D2F73290020540020204D73
:1002C000323034205300416363656C657261746938
:1002D0006F6E3A20533D616363656C65726174694A
:1002E0006F6E2C20543D726574726163742061637B
:1002F00063656C65726174696F6E00204500205AF9
:100300000020590020204D3230312058004D6178B6
:10031000696D756D20416363656C65726174696FA9
:100320006E20286D6D2F7332293A00204500205A27
:100330000020590020204D3230332058004D617884
:10034000696D756D206665656472617465732028DA
:100350006D6D2F73293A00204500205A0020590066
:1003600020204D3932205800537465707320706519
:100370007220756E69743A006563686F3A00507256
:10038000696E7465722073746F7070656420647533
:100390006520746F206572726F72732E20466978C3
:1003A00020746865206572726F7220616E642075BA
:1003B0007365204D39393920746F2072657374610B
:1003C00072742E202854656D706572617475726543
:1003D0002069732072657365742E205365742069DB
:1003E00074206166746572207265737461727469D9
:1003F0006E6729005072696E7465722068616C7452
:1004000065642E206B696C6C28292063616C6C65B7
:100410006421006F6B00526573656E643A20000AB8
:1004200000207A3A200020793A200020783A2000F3
:10043000426564002200556E6B6E6F776E20636FAD
:100440006D6D616E643A2022005A204F66667365B6
:1004500074203A20007A5F6D61783A20007A5F6DEF
:10046000696E3A20005A204F6666736574005A2000
:100470004F6666736574206F6B0046696C616D65CD
:100480006E742064696120286D656173757265649E
:10049000206D6D293A0046696C616D656E7420644B
:1004A000696120286E6F6D696E616C206D6D293AEF
:1004B000007A5F6D61783A20007A5F6D696E3A204C
:1004C00000795F6D61783A2000795F6D696E3A203E
:1004D00000785F6D61783A2000785F6D696E3A2030
:1004E00000205A3A0020593A0020436F756E74205C
:1004F000583A200020453A00205A3A0020593A0044
:10050000583A004649524D574152455F4E414D457C
:100510003A4D61726C696E2056313B20537072699E
:100520006E7465722F6772626C206D61736875708E
:1005300020666F722067656E36204649524D5741DE
:1005400052455F55524C3A68747470733A2F2F6756
:1005500069746875622E636F6D2F4572696B5A619D
:100560006C6D2F4D61726C696E2F2050524F544F3D
:10057000434F4C5F56455253494F4E3A312E30202F
:100580004D414348494E455F545950453A4D656E7B
:1005900064656C2045585452554445525F434F554D
:1005A0004E543A3120555549443A3030303030308D
:1005B00030302D303030302D303030302D30303044
:1005C000302D3030303030303030303030300A0084
:1005D00020423A0020453A00543A0020573A002081
:1005E000453A00543A002042403A0020403A002068
:1005F0002F003A00205400202F0020423A00202FE4
:10060000006F6B20543A002569206D696E2C2025FF
:100610006920736563000A00205A3A200020593A85
:10062000200020583A20004265640020643A2000EF
:1006300020623A200045716E20636F6566666963CB
:1006400069656E74733A20613A2000486F6D6520C9
:10065000582F59206265666F7265205A005A2070C3
:10066000726F6265206F75742E2062656400486F3A
:100670006D6520582F59206265666F7265205A009B
:100680005072696E7465722073746F707065642047
:1006900064756520746F206572726F72732E2046C8
:1006A000697820746865206572726F7220616E646B
:1006B00020757365204D39393920746F2072657348
:1006C000746172742E202854656D70657261747542
:1006D00072652069732072657365742E205365748A
:1006E000206974206166746572207265737461722A
:1006F00074696E6729006F6B004E6F204C696E65E0
:10070000204E756D62657220776974682063686534
:10071000636B73756D2C204C617374204C696E652E
:100720003A20004E6F20436865636B73756D2077C8
:10073000697468206C696E65206E756D6265722CD7
:10074000204C617374204C696E653A2000636865C3
:10075000636B73756D206D69736D617463682C20B4
:100760004C617374204C696E653A20004C696E656B
:10077000204E756D626572206973206E6F74204C17
:10078000617374204C696E65204E756D6265722BC5
:10079000312C204C617374204C696E653A20004DF9
:1007A000313130002020506C616E6E65724275668A
:1007B00066657242797465733A20002046726565F9
:1007C000204D656D6F72793A20004E6F7620203390
:1007D000203230313400436F6D70696C65643A20AB
:1007E00000286E6F6E652C2064656661756C7420E0
:1007F000636F6E6669672900207C20417574686F9D
:10080000723A20004E6F762020332032303134206F
:1008100031303A35373A303800204C617374205506
:100820007064617465643A2000312E302E30004DC2
:1008300061726C696E0020536F6674776172652017
:10084000526573657400205761746368646F672034
:100850005265736574002042726F776E206F7574F5
:10086000205265736574002045787465726E616C02
:1008700020526573657400506F7765725570007310
:100880007461727400FFFFFF0000A0400000A040F0
:100890000000004000004D4300004D43000048436D
:1008A00000000000000000000000000000004D43B8
:1008B00000004D430000484300000000000000001D
:1008C000000000006563686F3A004572726F723A0B
:1008D0000020746F6F206C6F6E672065787472757E
:1008E00073696F6E2070726576656E746564002042
:1008F000636F6C6420657874727573696F6E2070B5
:10090000726576656E746564006563686F3A002091
:100910005A3A0020593A0020583A00656E647374C0
:100920006F7073206869743A200024F4D43050C387
:100930008E20C2A24017828B7011127A910D816CA9
:10094000D90AA861E108C7586607615143061E4BE2
:100950005D05C145A7041A411104093D9803713989
:1009600031034036DB0265339102D4305402802ECD
:100970001D02632CEE01752AC501B028A0011027C5
:1009800081018F2564012B244B01E0223401AC212D
:100990001F018D200D01801FFC00841EED00971D9E
:1009A000DF00B81CD200E61BC600201BBC00641A86
:1009B000B200B219A8000A19A0006A189900D1174C
:1009C000910040178B00B516840031167E00B315D8
:1009D00079003A157300C7146F0058146A00EE13BB
:1009E00066008813630025135E00C7125B006C125B
:1009F000570015125400C111510070114F00211100
:100A00004B00D61049008D104700461044000210DC
:100A10004200C00F4000800F3E00420F3C00060F16
:100A20003B00CB0E3800930E37005C0E3500270ECE
:100A30003400F30D3200C10D3100900D3000600D17
:100A40002E00320D2D00050D2C00D90C2B00AE0C04
:100A50002900850C29005C0C2700350C27000E0CA2
:100A60002600E80B2400C40B2400A00B23007D0B00
:100A700023005A0B2100390B2100180B2000F80A23
:100A80001F00D90A1E00BB0A1E009D0A1D00800A15
:100A90001D00630A1C00470A1B002C0A1B00110AD8
:100AA0001A00F7091A00DD091900C4091900AB0979
:100AB0001900920917007B091800630917004C09F7
:100AC000160036091600200916000A091500F50857
:100AD0001500E0081400CC081400B8081400A4089D
:100AE0001400900813007D0812006B0813005808CA
:100AF00012004608120034081100230811001208E1
:100B0000110001081100F0071000E0071000D007E5
:100B10001000C0071000B0070F00A10710009107D8
:100B20000E0083070F0074070F0065070E005707BC
:100B30000E0049070E003B070D002E070E00200790
:100B40000D0013070D0006070D00F9060C00ED0659
:100B50000D00E0060C00D4060C00C8060C00BC0614
:100B60000C00B0060C00A4060B0099060C008D06C4
:100B70000B0082060B0077060B006C060B0061066B
:100B80000A0057060B004C060A0042060A00380607
:100B90000A002E060A0024060A001A060A00100699
:100BA000090007060A00FD050900F4050900EB0528
:100BB0000900E2050900D9050900D0050900C705AB
:100BC0000900BE050900B5050800AD050800A5052A
:100BD00009009C050800940508008C0508008405A0
:100BE00008007C050800740508006C050700650511
:100BF00008005D050700560508004E05070047057B
:100C000007004005080038050700310507002A05E0
:100C10000700230507001C050600160507000F0541
:100C200007000805060002050700FB040600F5049E
:100C30000700EE040600E8040600E2040700DB04F7
:100C40000600D5040600CF040600C9040600C3044C
:100C50000600BD040600B7040600B1040500AC049C
:100C60000600A6040600A00405009B0406009504E7
:100C70000500900406008A04050085040500800430
:100C800006007A04050075040500700405006B0475
:100C9000050066040500610405005C0405005704B6
:100CA0000500520405004D040500480405004304F6
:100CB00005003E0404003A04050035040500300434
:100CC00004002C04050027040400230405001E046E
:100CD00004001A04040016040500110404000D04A5
:100CE0000400090405000404040000040400FC03DB
:100CF0000400F8030400F4030400F0030400EC0310
:100D00000400E8030400E4030400E0030400DC033F
:100D10000400D8030400D4030400D0030400CC036F
:100D20000400C8030300C503030024F404D9201BF6
:100D3000C40C5C0E9804C4095F0265077101F405D8
:100D4000F900FB04B30048048700C103690058039D
:100D5000550003034500BE023A00840231005302ED
:100D60002A002902250004022000E4011C00C80119
:100D70001900AF01170098011400840113007101DC
:100D800010006101100051010E0043010D003601F9
:100D90000B002B010B0020010B00150109000C01B9
:100DA000090003010800FB000800F3000800EB0045
:100DB0000700E4000600DE000600D8000600D200AE
:100DC0000600CC000500C7000500C2000500BD00FC
:100DD0000400B9000400B5000400B1000400AD0037
:100DE0000400A9000400A5000300A20003009F0066
:100DF00004009B000300980003009500020093008C
:100E00000300900003008D0002008B0003008800A7
:100E100002008600020084000300810002007F00BF
:100E200002007D0002007B000200790002007700D2
:100E300001007600020074000200720001007100DF
:100E400002006F0002006D0001006C0002006A00E9
:100E500001006900020067000100660001006500F2
:100E600001006400020062000100610001006000F6
:100E700001005F0002005D0001005C0001005B00FA
:100E800001005A00010059000100580001005700FC
:100E900001005600010055000100540001005300FC
:100EA00000005300010052000100510001005000F9
:100EB00001004F0001004E0000004E0001004D00F7
:100EC00001004C0001004B0000004B0001004A00F3
:100ED00001004900010048000000480001004700EF
:100EE00001004600000046000100450000004500EA
:100EF00001004400010043000000430001004200E3
:100F000000004200010041000000410001004000DB
:100F100001003F0000003F0001003E0000003E00D5
:100F200001003D0000003D0001003C0000003C00CD
:100F300000003C0001003B0000003B0001003A00C3
:100F400000003A00010039000000390001003800BB
:100F500000003800000038000100370000003700B2
:100F600001003600000036000000360001003500A8
:100F7000000035000000350001003400000034009E
:100F80000000340001003300000033000000330093
:100F90000100320000003200000032000100310088
:100FA000000031000000310001003000000030007E
:100FB0000000300001002F0000002F0000002F0073
:100FC00000002F0001002E0000002E0000002E0067
:100FD00001002D0000002D0000002D0000002D005C
:100FE00001002C0000002C0000002C0000002C0050
:100FF00001002B0000002B0000002B0000002B0044
:1010000001002A0000002A0000002A0000002A0037
:10101000010029000000290000002900000029002B
:10102000000029000100280000002800000028001E
:101030000000280000002800010027000000270011
:101040000000270000002700000027000100260004
:1010500000002600000026000000260000002600F8
:1010600001002500000025000000250000002500EB
:1010700000002500000025000100240000002400DD
:1010800000002400000024000000240001002300D0
:1010900000002300000023000000230000002300C4
:1010A00000002300000023000100220000002200B5
:1010B00000002200000022000000220000002200A8
:1010C000010021000000210000002100000021009B
:1010D000000021000000210000002100010020008C
:1010E0000000200000002000000020000000200080
:1010F00000002000000020000000200001001F0070
:1011000000001F0000001F0000001F0000001F0063
:1011100000001F0000001F0001001E0000001E0054
:1011200000001E0000001E0000006563686F3A00AA
:1011300054656D706572617475726520686561745F
:1011400065642062656420737769746368656420F0
:101150006F66662E204D415854454D50207472697B
:10116000676765726564202121003A2045787472B2
:1011700075646572207377697463686564206F664F
:10118000662E204D494E54454D5020747269676754
:10119000657265642021003A204578747275646533
:1011A00072207377697463686564206F66662E20A9
:1011B0004D415854454D502074726967676572659A
:1011C00064202100202D20496E76616C69642065C1
:1011D00078747275646572206E756D626572202117
:1011E00000504944204175746F74756E65206669BE
:1011F0006E69736865642120507574207468652079
:101200006C617374204B702C204B6920616E6420DC
:101210004B6420636F6E7374616E74732066726FBB
:101220006D2061626F766520696E746F20436F6E0A
:1012300066696775726174696F6E2E680050494403
:10124000204175746F74756E65206661696C6564A4
:10125000212074696D656F75740020403A006F6BD2
:1012600020543A006F6B20423A00504944204175A7
:10127000746F74756E65206661696C6564212054B5
:10128000656D706572617475726520746F6F20682A
:1012900069676800204B643A2000204B693A2000BF
:1012A000204B703A200020436C61737369632050B7
:1012B000494420002054753A2000204B753A200004
:1012C000206D61783A2000206D696E3A200020641C
:1012D0003A200020626961733A20004572726F7291
:1012E0003A001000C90210012C01400122017001D6
:1012F0001801B0010E01F00104015002FA00B00221
:10130000F0003003E600D003DC009004D20070054A
:10131000C800A006BE000008B400B009AA00D00BA7
:10132000A000600E960060118C000015820020194C
:101330007800C01D6E00A0226400B0275A00902CD7
:10134000500000314600E0343C0010383200903A42
:101350002800603C1E00A03D1400803E0A00203F93
:10136000000070012C0190012701B0012201C00191
:101370001D01F00118011002130130020E0160027C
:10138000090190020401C002FF000003FA004003BB
:10139000F5008003F000D003EB002004E6007004A9
:1013A000E100E004DC004005D700C005D2004006A3
:1013B000CD00D006C8008007C3003008BE00F0088A
:1013C000B900C009B400B00AAF00B00BAA00D00C3D
:1013D000A500000EA000500F9B00C01096005012F8
:1013E000910000148C00C0158700B0178200B0195E
:1013F0007D00D01B7800001E730040206E009022FC
:101400006900F024640040275F0090295A00E02B17
:101410005500102E500020304B0010324600E033B3
:10142000410090353C001037370070383200A03949
:101430002D00B03A2800A03B2300603C1E00103D68
:101440001900903D1400103E0F00703E0A00C03E8F
:101450000500003F00000A00207A3A200020793A77
:10146000200020783A200000000A0B02090C0D0E23
:101470000807030401000000000000000000000055
:10148000000000000000000000000000000000005C
:101490000000001211100000000000000000000019
:1014A0000000000000000000000000000001021029
:1014B000202008081020401020408002010201086E
:1014C000040201010204081020408080402010081E
:1014D0000402018004020180402010080402010877
:1014E00004020101020408102040800102040810D7
:1014F00020408005050505070508080808020202C6
:10150000020A0A080804040404010101010101019E
:10151000010303030303030303040707070C0C0C75
:101520000C0C0C0C0C02020202060606060606064D
:10153000060B0B0B0B0B0B0B0B00002000230026E4
:101540000029002C002F00320000010000030106DA
:1015500001090100002200250028002B002E003187
:1015600000340002010000050108010B0100002108
:1015700000240027002A002D003000330001010064
:1015800000040107010A014E414E494E4954594990
:101590004E46CDCCCC3D0AD7233C17B7D13877CCBB
:1015A0002B329595E6241FB14F0A00002041000020
:1015B000C84200401C4620BCBE4CCA1B0E5AAEC5D9
:1015C0009D742F35187A11241FBECFEFD1E2DEBFF4
:1015D000CDBF00E00CBF14E0A0E0B2E0EAECF4E123
:1015E00001E00BBF02C007900D92A838B107D9F7F0
:1015F0002EE0A8E8B4E001C01D92A238B207E1F7DE
:1016000015E1C6ECD5E100E006C022970109FE0114
:101610000BBF0E946983C23CD10780E00807A9F78D
:101620000E941F7E0C94638A0C940000CF93DF937A
:10163000C8E7D3E0FE018491882341F09091C00077
:1016400095FFFCCF8093C6003196F5CFE8E6F3E036
:101650008491882341F09091C00095FFFCCF809346
:10166000C6003196F5CF8091C00085FFFCCF8AE09F
:101670008093C600FE018491E8E7F3E0882349F0F7
:101680009091C00095FFFCCF8093C6003196849165
:10169000F5CF4091800C5091810C6091820C70913B
:1016A000830C80E693E00E949D134091840C50913E
:1016B000850C6091860C7091870C8DE593E00E94FB
:1016C0009D134091880C5091890C60918A0C709107
:1016D0008B0C8AE593E00E949D1340918C0C5091F5
:1016E0008D0C60918E0C70918F0C87E593E00E94B9
:1016F0009D138091C00085FFFCCF8AE08093C600D7
:10170000FE018491E8E7F3E0882349F09091C0005E
:1017100095FFFCCF8093C60031968491F5CFEDE321
:10172000F3E08491882341F09091C00095FFFCCFB5
:101730008093C6003196F5CF8091C00085FFFCCF25
:101740008AE08093C600FE018491E8E7F3E08823F5
:1017500049F09091C00095FFFCCF8093C600319670
:101760008491F5CF4091900C5091910C6091920C26
:101770007091930C84E393E0E0D74091940C5091E6
:10178000950C6091960C7091970C81E393E0D5D7FE
:101790004091980C5091990C60919A0C70919B0C0F
:1017A0008EE293E0CAD740919C0C50919D0C6091C1
:1017B0009E0C70919F0C8BE293E0BFD78091C0008C
:1017C00085FFFCCF8AE08093C600FE018491E8E7A4
:1017D000F3E0882349F09091C00095FFFCCF8093FF
:1017E000C60031968491F5CFEDE0F3E08491882333
:1017F00041F09091C00095FFFCCF8093C6003196D8
:10180000F5CF8091C00085FFFCCF8AE08093C600B1
:10181000FE018491E8E7F3E0882349F09091C0004D
:1018200095FFFCCF8093C60031968491F5CF40910F
:10183000700C5091710C6091720C7091730C84E07B
:1018400093E08DD74091740C5091750C6091760C9B
:101850007091770C81E093E082D74091780C5091A1
:10186000790C60917A0C70917B0C8EEF92E077D7B7
:1018700040917C0C50917D0C60917E0C70917F0C9E
:101880008BEF92E06CD78091C00085FFFCCF8AE09F
:101890008093C600FE018491E8E7F3E0882349F0D5
:1018A0009091C00095FFFCCF8093C6003196849143
:1018B000F5CFE6ECF2E08491882341F09091C000EE
:1018C00095FFFCCF8093C6003196F5CF8091C00084
:1018D00085FFFCCF8AE08093C600FE018491E8E793
:1018E000F3E0882349F09091C00095FFFCCF8093EE
:1018F000C60031968491F5CF4091680C5091690CE7
:1019000060916A0C70916B0C8DEB92E016D7409150
:10191000640C5091650C6091660C7091670C8AEBB9
:1019200092E00BD78091C00085FFFCCF8AE08093C6
:10193000C600FE018491E8E7F3E0882349F0909126
:10194000C00095FFFCCF8093C60031968491F5CFFF
:10195000E7E0F2E08491882341F09091C00095FF88
:10196000FCCF8093C6003196F5CF8091C00085FFF3
:10197000FCCF8AE08093C600FE018491E8E7F3E0A3
:10198000882349F09091C00095FFFCCF8093C6005A
:1019900031968491F5CF40916C0C50916D0C609113
:1019A0006E0C70916F0C8EEF91E0C7D64091540C85
:1019B0005091550C6091560C7091570C8BEF91E043
:1019C000BCD64091A00C5091A10C6091A20C7091DA
:1019D000A30C88EF91E0C3D64091600C5091610C4C
:1019E0006091620C7091630C85EF91E0A6D64091F6
:1019F0005C0C50915D0C60915E0C70915F0C82EFFD
:101A000091E09BD64091580C5091590C60915A0C22
:101A100070915B0C8FEE91E090D68091C00085FFB5
:101A2000FCCF8AE08093C600FE018491E8E7F3E0F2
:101A3000882349F09091C00095FFFCCF8093C600A9
:101A400031968491F5CFEDEDF1E08491882341F05A
:101A50009091C00095FFFCCF8093C6003196F5CFE2
:101A60008091C00085FFFCCF8AE08093C600FE0114
:101A70008491E8E7F3E0882349F09091C00095FF56
:101A8000FCCF8093C60031968491F5CF40919E069D
:101A900050919F066091A0067091A10684ED91E09F
:101AA0004CD64091A2065091A3066091A406709175
:101AB000A50681ED91E041D64091A6065091A7067A
:101AC0006091A8067091A9068EEC91E036D68091BF
:101AD000C00085FFFCCF8AE08093C600FE018491A0
:101AE000E8E7F3E0882349F09091C00095FFFCCF30
:101AF0008093C60031968491F5CFE0ECF1E08491BB
:101B0000882341F09091C00095FFFCCF8093C600E0
:101B10003196F5CF8091C00085FFFCCF8AE080939D
:101B2000C600FE01C491E8E7F3E0CC2349F08091C0
:101B3000C00085FFFCCFC093C6003196C491F5CF9D
:101B40004091A3025091A4026091A5027091A60257
:101B500086EB91E0F2D560919F027091A002809196
:101B6000A1029091A2020E943D75AB01BC0183EBE2
:101B700091E0E3D560919B0270919C0280919D025F
:101B800090919E020E944975AB01BC0180EB91E0EF
:101B9000D4D58091C00085FFFCCF8AE08093C60039
:101BA000DF91CF910895AF92BF92CF92DF92EF92E3
:101BB000FF920F931F93CF93DF93CDB7DEB7E097DC
:101BC0000FB6F894DEBF0FBECDBF80E1E7EAF2E0CA
:101BD000DE01919601900D928A95E1F780E1E7EBA5
:101BE000F2E0DE01519601900D928A95E1F780E1D5
:101BF000E7ECF2E0DE01119601900D928A95E1F793
:101C00006E0181E2C80ED11C80E8E82E8CE0F82E2F
:101C10008E010F5E1F4F60E97CE0AE014F5F5F4FAA
:101C200090E7A92E9CE0B92E20E030E0F6018191EA
:101C30009191A191B1916F01F70181939193A1933A
:101C4000B1937F01F80181919191A191B1918F019F
:101C5000FB0181939193A193B193BF01FA0181910B
:101C60009191A191B191AF01F50181939193A193CC
:101C7000B1935F012F5F3F4F24303105B9F60E94C9
:101C8000324C80E090E8ABE3B5E48093680C90932D
:101C9000690CA0936A0CB0936B0C8093640C9093C6
:101CA000650CA093660CB093670C10926C0C1092AC
:101CB0006D0C10926E0C10926F0C80E29EE4A0E00E
:101CC000B0E08093A00C9093A10CA093A20CB093D1
:101CD000A30C1092540C1092550C1092560C1092AA
:101CE000570C80E090E0A0EAB1E48093600C909300
:101CF000610CA093620CB093630C8DEC9CECACEC8B
:101D0000BEE380935C0C90935D0CA0935E0CB0934B
:101D10005F0C80E090E0A0EAB0E48093580C9093D0
:101D2000590CA0935A0CB0935B0C1092A60610921B
:101D3000A7061092A8061092A9061092A206109269
:101D4000A3061092A4061092A50610929E06109269
:101D50009F061092A0061092A1068AE999E9A9E9C6
:101D6000B0E480938B0690938C06A0938D06B0937D
:101D70008E0683EC95EFA6E5B2E48093A3029093E0
:101D8000A402A093A502B093A60268E471EE82EAD1
:101D900090E40E94377560939F027093A002809335
:101DA000A1029093A2026FE872EC8DE093E40E948E
:101DB000437560939B0270939C0280939D02909365
:101DC0009E020E94756B80E090E0A0E8BFE38093E4
:101DD000970290939802A0939902B0939A02E8E731
:101DE000F3E08491882341F09091C00095FFFCCFEF
:101DF0008093C6003196F5CFEEE8F1E08491882318
:101E000041F09091C00095FFFCCF8093C6003196C1
:101E1000F5CF8091C00085FFFCCF8AE08093C6009B
:101E2000E0960FB6F894DEBF0FBECDBFDF91CF9125
:101E30001F910F91FF90EF90DF90CF90BF90AF90E8
:101E40000895FC0165917591859194910895CF93C2
:101E5000209130023091310237FD31C0C5E0C29F80
:101E6000C001C39F900D112460E070E087579B4F25
:101E70000E94056060912802709129022091300231
:101E800030913102C29FC001C39F900D112487572A
:101E90009B4F0E944B606CE271E080E090E00E94FA
:101EA000EB7B2091300230913102C29FC001C39F71
:101EB000900D112487579B4FCF910C940A60CF91BE
:101EC0000895CF93209130023091310237FD31C017
:101ED000C5E0C29FC001C39F900D112460E070E077
:101EE00087579B4F0E94056060912A0270912B02D8
:101EF0002091300230913102C29FC001C39F900DEA
:101F0000112487579B4F0E944B606CE271E080E088
:101F100090E00E94EB7B2091300230913102C29F11
:101F2000C001C39F900D112487579B4FCF910C94F4
:101F30000A60CF91089580910F0290911002A091B4
:101F40001102B09112028093470690934806A09325
:101F50004906B0934A0680914602909147029093B9
:101F6000BB068093BA0684E690E090934702809384
:101F700046020E94BC7B6093A6047093A7048093E2
:101F8000A8049093A90481E00C94AD6180E00E94C4
:101F9000AD618091470690914806A0914906B091A5
:101FA0004A0680930F0290931002A0931102B093FF
:101FB00012028091BA069091BB06909347028093DB
:101FC00046020E94BC7B6093A6047093A704809392
:101FD000A8049093A90408954F925F926F927F9204
:101FE0008F929F92AF92BF92CF92DF92EF92FF9229
:101FF0000F931F9340900F025090100260901102B7
:1020000070901202812C912CEAEFAE2EE5E4BE2EE8
:1020100080920F0290921002A0921102B0921202CE
:102020006093AA067093AB068093AC069093AD06BE
:102030002093AE063093AF064093B0065093B1069E
:10204000E092B206F092B3060093B4061093B50680
:10205000EAE8F6E0FF93EF93F5E58F2E982CF5E094
:10206000AF2EF3E4BF2EA6EBCA2EA6E0DA2E0E9416
:10207000FE3F0E94796940920F02509210026092D6
:102080001102709212020F900F901F910F91FF900A
:10209000EF90DF90CF90BF90AF909F908F907F9008
:1020A0006F905F904F9008952F923F924F925F9262
:1020B0006F927F928F929F92AF92BF92CF92DF9258
:1020C000EF92FF920F931F93CF93DF9388E692E0F6
:1020D0000E949B77E0E5F2E06081718182819381CB
:1020E00060930F027093100280931102909312027A
:1020F00020E030E040E752E40E94537F4B015C0156
:10210000CEEAD6E0288139814A815B81EAEAF6E0AD
:102110006081718182819381BAE82B2EB6E03B2EDB
:102120003F922F9216EBC12E16E0D12EE12CF12C0E
:1021300000E211EC0E94FE3F0E94796982E00E9459
:10214000DF694B015C01288139814A815B81EAEAC0
:10215000F6E06081718182819381850174010E9422
:102160002B4B80E998E06DDE9B01AC01C501B40109
:102170000E94737E2B013C0120E030E040E752E4F6
:1021800060910F02709110028091110290911202E1
:102190000E94537F4B015C01288139814A815B8118
:1021A000EAEAF6E060817181828193813F922F9209
:1021B000830172010E94FE3F0E94796920E030E0B5
:1021C00040E85EE3E0E5F2E0608171818281938125
:1021D0000E9421824B015C0160930F0270931002F8
:1021E000809311029093120280E998E02ADE6B013D
:1021F0007C0120E030E040E752E4C501B4010E94D8
:10220000537F4B015C01A7019601C701B6010E94F3
:10221000737E9B01AC01C301B2010E94727E7B01FF
:102220008C01288139814A815B81EAEAF6E060818C
:102230007181828193813F922F92F6EBCF2EF6E04F
:10224000DF2E0E94FE3F0E94796982E00E94DF69D2
:102250007B018C016093B2067093B3068093B40641
:102260009093B506288139814A815B81EAEAF6E0DC
:1022700060817181828193810E942B4B0F900F901E
:102280000F900F900F900F90DF91CF911F910F91B2
:10229000FF90EF90DF90CF90BF90AF909F908F9086
:1022A0007F906F905F904F903F902F9008952F9266
:1022B0003F924F925F926F927F928F929F92AF92D6
:1022C000BF92CF92DF92EF92FF920F931F93CF9323
:1022D000DF93CDB7DEB72A970FB6F894DEBF0FBEF7
:1022E000CDBF1C01FC01EB57F74F74909C01220FEE
:1022F000331F220F331F3A872987F901E655F94F1B
:102300001082118212821382E090B206F090B3061E
:102310000091B4061091B5062091AE063091AF063B
:102320004091B0065091B1066091AA067091AB063B
:102330008091AC069091AD06E6EBCE2EE6E0DE2E67
:102340000E942B4B32E02316310411F480DD1AC0B9
:10235000F101EE0FFF1FDF01A45DBD4F2D913C91F8
:1023600037FD10C0EE0FFF1FE05EFD4F60817181F1
:1023700045E0429FC001439F900D112487579B4F1A
:102380000E944B6089859A858C56974F5ADD4B0188
:102390005C01672D772767FD7095872F972F0E9427
:1023A000EE7F2B013C0189859A85855A994F9A8346
:1023B000898320E030E040EC5FE3C501B4010E9476
:1023C0002182A30192010E942182A981BA816D9389
:1023D0007D938D939C931397E985FA85E85BFD4F78
:1023E000F887EF83608171818281938160930F020E
:1023F00070931002809311029093120220E030E05B
:1024000040E752E40E94537F4B015C01E090630679
:10241000F0906406009165061091660620915F06B3
:1024200030916006409161065091620660915B06B2
:1024300070915C0680915D0690915E06AAE8B6E018
:10244000BF93AF93B7E6CB2EB6E0DB2E0E94FE3FE4
:102450000E94796929853A852655394F3C832B831B
:10246000D9011D921D921D921C921397E090B20605
:10247000F090B3060091B4061091B5062091AE0617
:102480003091AF064091B0065091B1066091AA0616
:102490007091AB068091AC069091AD06E6EBCE2E26
:1024A000E6E0DE2E0E942B4BE985FA85E857F74FD0
:1024B000FE83ED83CF01C5DC9058A30192010E94F9
:1024C0002182A981BA816D937D938D939C931397FB
:1024D00020E030E040E752E460910F02709110027A
:1024E00080911102909112020E94537F4B015C0176
:1024F000E0906306F0906406009165061091660610
:1025000020915F063091600640916106509162060D
:1025100060915B0670915C0680915D0690915E060D
:10252000AAE8B6E0BF93AF93F7E6CF2EF6E0DF2E32
:102530000E94FE3F0E9479698D819E8182DC9B0111
:10254000AC010E94737EA30192010E942182A981A5
:10255000BA816D937D938D939C93139720E030E027
:1025600040E05FE3EF81F885608171818281938132
:102570000E94218260930F027093100280931102D7
:102580009093120220E030E040E752E40E94537F33
:102590004B015C01E0906306F090640600916506D3
:1025A0001091660620915F063091600640916106A9
:1025B0005091620660915B0670915C0680915D06A9
:1025C00090915E06AAE8B6E0BF93AF930E94FE3FEB
:1025D0000E94796989859A858056974F32DC0985F2
:1025E0001A850256194FD8012D913D914D915C915C
:1025F0000E94737EEB81FC8160837183828393836D
:1026000089859A858854974F1CDC29853A852E56F2
:10261000394F7901D8012D913D914D915C910E94E6
:10262000737EF701608371838283938389859A85A2
:102630008455974F06DC29853A852E5C3D4F7901FC
:10264000D8012D913D914D915C910E94737EF701CF
:102650006083718382839383EB81FC81808191818C
:10266000A281B381E981FA8180839183A283B383BC
:1026700010920F0210921002109211021092120288
:102680000E94A66181E0F101E157F94F8083F101D9
:10269000EE0FFF1FDF01A45DBD4F2D913C910F9008
:1026A0000F900F900F900F900F9037FD10C0EE0F0E
:1026B000FF1FEE5DFD4F6081718145E0429FC001CB
:1026C000439F900D112487579B4F0E944B60F2E06F
:1026D0002F163104C9F42A960FB6F894DEBF0FBE48
:1026E000CDBFDF91CF911F910F91FF90EF90DF90C1
:1026F000CF90BF90AF909F908F907F906F905F90A2
:102700004F903F902F90DDCB2A960FB6F894DEBF06
:102710000FBECDBFDF91CF911F910F91FF90EF9032
:10272000DF90CF90BF90AF909F908F907F906F90F1
:102730005F904F903F902F900895FC0124912223A9
:1027400041F03091C00035FFFCCF2093C6000196C8
:10275000F4CF22E030E080EC96E00C945E37FC0190
:102760002491222341F03091C00035FFFCCF20930B
:10277000C6000196F4CF2AE030E080EC96E00C949D
:10278000B436CF93DF931F921F92CDB7DEB78091FF
:102790007C0E90917D0E9E012F5F3F4F009719F4A4
:1027A00022583E4002C0281B390B3A832983898175
:1027B0009A810F900F90DF91CF910895269A2E98CD
:1027C0000895FF920F931F93CF93DF936BE070E018
:1027D00089E894E00E94056066E070E08EE894E08D
:1027E0000E94056065E070E083E994E00E94056066
:1027F000CCE2D2E002E212E0F5E0FF2E299139911D
:1028000037FD0CC0F80160817181F29EC001F39E1A
:10281000900D112487579B4F0E944B600C5F1F4FF8
:10282000F2E0C233DF0751F76CE271E080E090E044
:102830000E94EB7B209130023091310245E0429FB3
:10284000C001439F900D112487579B4FDF91CF917B
:102850001F910F91FF900C940A60B0DF40E052ECA2
:1028600061E070E080EC96E00E947435EFE7F8E0FC
:102870008491882341F09091C00095FFFCCF809314
:10288000C6003196F5CF8091C00085FFFCCF8AE06D
:102890008093C60084EC98E0FC012491222341F04F
:1028A0003091C00035FFFCCF2093C6003196F5CFA4
:1028B00024B720FF14C0E7E7F8E03491332341F058
:1028C0004091C00045FFFCCF3093C6003196F5CF54
:1028D0003091C00035FFFCCF3AE03093C60021FFB5
:1028E00014C0E7E6F8E03491332341F04091C00092
:1028F00045FFFCCF3093C6003196F5CF3091C00034
:1029000035FFFCCF3AE03093C60022FF14C0E6E565
:10291000F8E03491332341F04091C00045FFFCCFF3
:102920003093C6003196F5CF3091C00035FFFCCF13
:102930003AE03093C60023FF14C0E6E4F8E0349197
:10294000332341F04091C00045FFFCCF3093C600D7
:102950003196F5CF3091C00035FFFCCF3AE030938F
:10296000C60025FF14C0E6E3F8E02491222341F0DD
:102970003091C00035FFFCCF2093C6003196F5CFD3
:102980002091C00025FFFCCF2AE02093C60014BE92
:10299000EFE2F8E02491222341F03091C00035FFAE
:1029A000FCCF2093C6003196F5CFE9E2F8E0249100
:1029B000222341F03091C00035FFFCCF2093C600A8
:1029C0003196F5CF2091C00025FFFCCF2AE020935F
:1029D000C600FC012491E4ECF8E0222349F0309198
:1029E000C00035FFFCCF2093C60031962491F5CF6F
:1029F000E9E1F8E02491222341F03091C00035FF55
:102A0000FCCF2093C6003196F5CFE4E0F8E02491A6
:102A1000222341F03091C00035FFFCCF2093C60047
:102A20003196F5CFE8EFF7E02491222341F0309181
:102A3000C00035FFFCCF2093C6003196F5CFE1EE04
:102A4000F7E02491222341F03091C00035FFFCCF04
:102A50002093C6003196F5CF2091C00025FFFCCF12
:102A60002AE02093C600E6EDF7E02491222341F00E
:102A70003091C00035FFFCCF2093C6003196F5CFD2
:102A8000EAECF7E02491222341F03091C00035FFB9
:102A9000FCCF2093C6003196F5CF2091C00025FFD2
:102AA000FCCF2AE02093C600FC018491E4ECF8E01E
:102AB000882349F09091C00095FFFCCF8093C60019
:102AC00031968491F5CFEBEBF7E08491882341F0C8
:102AD0009091C00095FFFCCF8093C6003196F5CF52
:102AE00050DE4AE050E0BC0180EC96E00E9488365F
:102AF000E4EAF7E08491882341F09091C00095FFCB
:102B0000FCCF8093C6003196F5CF4AE050E060EDEF
:102B100074E080EC96E00E9488368091C00085FFCA
:102B2000FCCF8AE08093C6001092B6041092B704DE
:102B30001092B8041092B90436D80E94160B0E9465
:102B4000626E0E94983E0E94E5683BDEFFEF23ED37
:102B500080E3F15020408040E1F700C0000008957C
:102B60008091AA049091AB0460E070E001960C940F
:102B7000B7848091AA049091AB044AE050E060E0F1
:102B800070E001960C941F86682F772767FD70957B
:102B90002091B4043091B50440E6429FC001439FA8
:102BA000900D112486549B4F0E948A879093AB040A
:102BB0008093AA0421E0892B09F420E0822F089554
:102BC0000E94BC7B6093A6047093A7048093A80422
:102BD0009093A904E3E1F4E08491882341F090917B
:102BE000C00095FFFCCF8093C6003196F5CF809151
:102BF000C00085FFFCCF8AE08093C600089580EC7A
:102C000096E00E94C635E6E1F4E08491882341F025
:102C10009091C00095FFFCCF8093C6003196F5CF10
:102C200040913F06509140066091410670914206E6
:102C30004F5F5F4F6F4F7F4F2AE030E080EC96E0B0
:102C40000E9465368091C00085FFFCCF8AE08093AA
:102C5000C600B6CF8F929F92AF92BF92CF92DF9273
:102C6000EF92FF920F931F93CF93DF93A2E2EA2E8E
:102C7000A4E0FA2E0AEA16E0CBE5D6E0BCEBCB2EB8
:102C8000B6E0DB2EF70181917F017EDF882311F111
:102C900067DF4B015C01F6018081811103C0609107
:102CA0003A0601C061E070E080E090E00E94EE7FB3
:102CB000F80120813181428153810E9421829B0150
:102CC000AC01C501B4010E94737E688379838A8355
:102CD0009B8309C0F80180819181A281B38188839F
:102CE0009983AA83BB830C5F1F4F2496FFEFCF1AF3
:102CF000DF0A86E2E81684E0F80621F686E444DF7F
:102D00008823D1F02DDF6B017C0160934B0670931B
:102D10004C0680934D0690934E0620E030E0A901CA
:102D20000E944F81181644F4C0920F02D0921002F4
:102D3000E0921102F0921202DF91CF911F910F9158
:102D4000FF90EF90DF90CF90BF90AF909F908F90CB
:102D5000089580DF89E418DF882351F001DF609354
:102D60004F0670935006809351069093520608C008
:102D700010924F0610925006109251061092520671
:102D80008AE402DF882351F0EBDE609353067093F0
:102D90005406809355069093560608951092530654
:102DA0001092540610925506109256060895CF922E
:102DB000DF92EF92FF92CF93DF93EC01C09032024B
:102DC000D0903302E0903402F0903502A7019601D2
:102DD000688179818A819B810E944F81181624F431
:102DE000C882D982EA82FB82C0903602D090370234
:102DF000E0903802F0903902A70196016C817D8144
:102E00008E819F810E944F81181624F4CC82DD822E
:102E1000EE82FF82C0903A02D0903B02E0903C02EA
:102E2000F0903D02A7019601688579858A859B858A
:102E30000E944F81181624F4C886D986EA86FB863C
:102E4000DF91CF91FF90EF90DF90CF9008954F9258
:102E50005F926F927F928F929F92AF92BF92CF922A
:102E6000DF92EF92FF920F931F93CF93DF93CDB733
:102E7000DEB728970FB6F894DEBF0FBECDBF8BE547
:102E800096E095DF0E94BC7B6093A6047093A70434
:102E90008093A8049093A90420915B0630915C066E
:102EA00040915D0650915E0629833A834B835C8393
:102EB0006091AA067091AB068091AC069091AD0628
:102EC0000E944C7F40905F065090600660906106C3
:102ED0007090620620916306309164064091650609
:102EE000509166062D833E834F83588781118BC096
:102EF000A30192016091AE067091AF068091B00679
:102F00009091B1060E944C7F81117DC020E030E09D
:102F100040E752E460910F0270911002809111021B
:102F2000909112020E94537F4B015C018AE896E067
:102F30009F938F9317E6C12E16E0D12EED80FE8071
:102F40000F811885A301920169817A818B819C810F
:102F50000E94FE3F0F900F9080915B0690915C065F
:102F6000A0915D06B0915E068093AA069093AB0691
:102F7000A093AC06B093AD0680915F069091600679
:102F8000A0916106B09162068093AE069093AF0661
:102F9000A093B006B093B106809163069091640649
:102FA000A0916506B09166068093B2069093B30631
:102FB000A093B406B093B506809167069091680619
:102FC000A0916906B0916A068093B6069093B70601
:102FD000A093B806B093B90628960FB6F894DEBF52
:102FE0000FBECDBFDF91CF911F910F91FF90EF905A
:102FF000DF90CF90BF90AF909F908F907F906F9019
:103000005F904F9008956091460270914702882723
:1030100077FD8095982F0E94EE7F20910F023091CE
:10302000100240911102509112020E94218220E070
:1030300030E040E752E40E94537F20E030E048EC6B
:1030400052E470CFAF92BF92CF92DF92EF92FF9295
:103050000F931F93CF93DF93D82F20915306309176
:103060005406409155065091560660914F06709156
:10307000500680915106909152060E945C81C62FA5
:10308000172F082FF92E609146027091470288276A
:1030900077FD8095982F0E94EE7F20910F0230914E
:1030A000100240911102509112020E94218220E0F0
:1030B00030E040E752E40E94537F20E030E048ECEB
:1030C00052E40E94537F20918A062F93DF93FF9250
:1030D0000F931F93CF935B016C0102E0E02E01E0A0
:1030E00020E04FE456E06BE576E08AEA96E00E9445
:1030F0005F3780915B0690915C06A0915D06B09170
:103100005E068093AA069093AB06A093AC06B0939C
:10311000AD0680915F0690916006A0916106B09126
:1031200062068093AE069093AF06A093B006B0936C
:10313000B1068091630690916406A0916506B091F6
:1031400066068093B2069093B306A093B406B0933C
:10315000B5068091670690916806A0916906B091C6
:103160006A068093B6069093B706A093B806B0930C
:10317000B9060E94BC7B6093A6047093A704809359
:10318000A8049093A9040F900F900F900F900F90A8
:103190000F90DF91CF911F910F91FF90EF90DF90F3
:1031A000CF90BF90AF900895F8940E94046F5F9AFB
:1031B00010928F068A9A109290069FB7F894809189
:1031C00008018160809308019FBF10929106129AB6
:1031D00060E08CE00E94887DEAECF8E0849188232E
:1031E00041F09091C00095FFFCCF8093C6003196CE
:1031F000F5CFE4EFF3E08491882341F09091C00093
:1032000095FFFCCF8093C6003196F5CF8091C0002A
:1032100085FFFCCF8AE08093C600FFCF4F925F927C
:103220006F927F929F92AF92BF92CF92DF92EF9276
:10323000FF920F931F93CF93DF9380E6B82EC4E0E5
:10324000D0E000E816E09AE0A92E26EFE22E26E074
:10325000F22E9924939480914107909142072091F6
:10326000430730914407821B930B8F779927892B53
:1032700009F42AC28091B0049091B10404970CF033
:1032800023C280EC96E00E94AA358093AF0420917F
:10329000AD043091AE048A3061F08D3051F08A3344
:1032A00021F49091AC04992321F02F3531050CF4D1
:1032B00030C12115310519F41092AC0405C280917A
:1032C000B2049091B304B89E6001B99ED00C112451
:1032D000F601E20FF31FE654FB4F10822091AC047D
:1032E000211112C11092AC04FC01EA54FB4F108270
:1032F000C60186549B4F3C016EE470E00E948A87B1
:103300000097F1F19093AB048093AA048619970972
:103310008C0D9D1D4AE050E060E070E085549B4FAD
:103320000E941F866093430670934406809345066F
:103330009093460640903F065090400660904106AC
:1033400070904206EFEF4E1A5E0A6E0A7E0AC09037
:10335000B204D090B304641575058605970509F489
:10336000F6C0BC9CC001BD9C900D11246FE977E0B4
:1033700086549B4F0E947087892B09F0E8C077C163
:103380006AE270E0C3010E948A87892B09F444C075
:10339000EAECF8E08491882341F09091C00095FF19
:1033A000FCCF8093C6003196F5CFE9EFF6E084912B
:1033B000882341F09091C00095FFFCCF8093C60018
:1033C0003196F5CF40913F065091400660914106FD
:1033D000709142062AE030E080EC96E00E9465366B
:1033E0008091C00085FFFCCF8AE08093C6001092D8
:1033F000AE041092AD0468C18091430690914406DA
:10340000A0914506B091460680933F0690934006F2
:10341000A0934106B09342068091B2049091B30408
:10342000B89E6001B99ED00C1124C60186549B4FF2
:103430003C0167E470E00E948A87009709F440C06D
:103440009093AB048093AA04861997098C0D9D1D57
:1034500060E070E085549B4F0E94B7840E94BB7F60
:103460006430710568F580919804811114C0F701EA
:103470008491E6EFF6E0882349F09091C00095FF33
:10348000FCCF8093C60031968491F5CF8091C00027
:1034900085FFFCCF13C0F8018491E0E8F6E08823B3
:1034A00049F09091C00095FFFCCF8093C600319603
:1034B0008491F5CF8091C00085FFFCCFA092C6001B
:1034C000C090B204D090B304BC9CC001BD9C900DD0
:1034D000112467ED72E086549B4F0E949587892BDB
:1034E00009F462DEC6010196BE010E940283909338
:1034F000B3048093B2048091B0049091B10401961A
:103500009093B1048093B0041092AE041092AD0475
:10351000A2CE8B3311F49092AC049091AC04911133
:103520009ACE4091B2045091B304B9016F5F7F4FBE
:103530007093AE046093AD04B49EF001B59EF00D9F
:103540001124E20FF31FE654FB4F808384CEBC9C12
:103550003001BD9C700C1124C30186549B4F2C017B
:103560006AE270E00E948A87009789F5EAECF8E049
:103570008491882341F09091C00095FFFCCF809307
:10358000C6003196F5CFE3E2F7E08491882341F05D
:103590009091C00095FFFCCF8093C6003196F5CF87
:1035A00040913F065091400660914106709142065D
:1035B0002AE030E080EC96E00E9465368091C00001
:1035C00085FFFCCF8AE08093C60019DB10CF20E096
:1035D000D12CF301E20FF11DE654FB4F30813A325A
:1035E00019F02F5FD326F5CF9093AB048093AA04F4
:1035F00084199509860D971D60E070E085549B4FF6
:103600000E94B7840E94BB7F2D2D30E0261737071C
:1036100009F4F2CEEAECF8E08491882341F090912D
:10362000C00095FFFCCF8093C6003196F5CFEDE446
:10363000F7E08491882341F09091C00095FFFCCF82
:103640008093C6003196F5CF40913F0650914006D9
:1036500060914106709142062AE030E080EC96E0ED
:103660000E9465368091C00085FFFCCFABCFEAECAD
:10367000F8E08491882341F09091C00095FFFCCF41
:103680008093C6003196F5CFECE6F7E0849188236D
:1036900041F09091C00095FFFCCF8093C600319619
:1036A000F5CF40913F0650914006609141067091E0
:1036B00042062AE030E080EC96E00E946536809178
:1036C000C00085FFFCCF7ECFDF91CF911F910F917E
:1036D000FF90EF90DF90CF90BF90AF909F907F9042
:1036E0006F905F904F900895CF92DF92EF92FF928C
:1036F0000F931F938091B0049091B10403970CF441
:103700008DDD0E94BC7B0091A2041091A304209146
:10371000A4043091A504C090A604D090A704E09022
:10372000A804F090A9046C197D098E099F09061759
:1037300017072807390728F4012B022B032B09F060
:1037400033DD80910B0290910C02A0910D02B0919B
:103750000E02892B8A2B8B2B09F10E94BC7B0091D6
:10376000A6041091A7042091A8043091A904601B1D
:10377000710B820B930B00910B0210910C022091A4
:103780000D0230910E02061717072807390730F48B
:1037900090914B0780914A07981741F01F910F9124
:1037A000FF90EF90DF90CF900C94E13F5F9A1092E2
:1037B0008F068A9A109290069FB7F894809108011C
:1037C0008160809308019FBF10929106129AE6CF04
:1037D0000E94046F80919804811134C081E080932D
:1037E000980480913F0690914006A0914106B091C7
:1037F000420680933B0690933C06A0933D06B0930F
:103800003E06EAECF8E08491882341F09091C000F4
:1038100095FFFCCF8093C6003196F5CFEEE7F3E03D
:103820008491882341F09091C00095FFFCCF809354
:10383000C6003196F5CF8091C00085FFFCCF8AE0AD
:103840008093C6000895809198040895CF93DF93E4
:10385000EC0180918A068093990484E595D98111C1
:1038600002C080E074C07CD90E94C07F609399043C
:103870006623B9F3E4ECF8E08491882341F0909159
:10388000C00095FFFCCF8093C6003196F5CFCD36B2
:10389000D105B9F054F4C836D105B1F0C936D10517
:1038A00009F045C0E1E2F3E021C0CA3DD10531F0A5
:1038B000CD3DD105E1F5ECEDF2E036C0E3EFF2E00D
:1038C00029C0EAE0F3E01CC0E8E3F3E0819188233B
:1038D00071F19091C00095FFFCCF8093C600F6CFA8
:1038E0009091C00095FFFCCF8093C600819181111B
:1038F000F7CF1DC09091C00095FFFCCF8093C6000C
:1039000081918111F7CF13C09091C00095FFFCCF3A
:103910008093C60081918111F7CF09C09091C000BA
:1039200095FFFCCF8093C60081918111F7CF40E0D5
:1039300050E06091990480EC96E00E94BF3680913F
:10394000C00085FFFCCF8AE08093C60081E0DF9154
:10395000CF9108952F923F924F925F926F927F92F4
:103960008F929F92AF92BF92CF92DF92EF92FF928F
:103970000F931F93CF93DF93CDB7DEB7C95AD10909
:103980000FB6F894DEBF0FBECDBF87E4FDD8882305
:1039900011F40C943125E4D80E94BB7F6C31710581
:1039A00009F49FC09CF46230710509F44BC024F403
:1039B00077FF3FC00C946B336330710509F44AC044
:1039C0006430710509F450C00C946B336A3571058D
:1039D00009F4DCC724F56D31710509F477C36E3144
:1039E000710511F00C946B330E94270F0E947969C6
:1039F0000E949B0F8091500290915102A09152021F
:103A0000B091530280930F0290931002A093110281
:103A1000B09312020E945410E7E2F6E050C76B35F3
:103A2000710509F4B7C76C35710509F4B8C70C9472
:103A30006B338091980481110C946B330BD907DAA6
:103A40000C94E9348091980481110C946B3381D9E2
:103A500081E007C08091980481110C946B3379D96F
:103A600080E0F0DA0C94E93480E58ED8882331F0D8
:103A700077D80E94C07F4B015C0103C0812C912C40
:103A8000540183E581D8882359F06AD820E030E0DA
:103A90004AE754E40E9421820E94C07F4B015C01EE
:103AA0000E9479690E94BC7B6B017C01C80CD91C07
:103AB000EA1CFB1C0E94BC7B6093A6047093A704C5
:103AC0008093A8049093A9040E94BC7B6C157D058B
:103AD0008E059F0510F00C946B330E94D76B04DEAB
:103AE000F3CF88E692E00E949B7780910F0290913D
:103AF0001002A0911102B091120280934706909398
:103B00004806A0934906B0934A06809146029091D8
:103B100047029093BB068093BA0684E690E09093A8
:103B20004702809346020E94BC7B6093A604709378
:103B3000A7048093A8049093A90481E00E94AD613A
:103B40008091AA069091AB06A091AC06B091AD060B
:103B500080935B0690935C06A0935D06B0935E062F
:103B60008091AE069091AF06A091B006B091B106DB
:103B700080935F0690936006A0936106B0936206FF
:103B80008091B2069091B306A091B406B091B506AB
:103B90008093630690936406A0936506B0936606CF
:103BA0008091B6069091B706A091B806B091B9067B
:103BB0008093670690936806A0936906B0936A069F
:103BC00010920F0210921002109211021092120223
:103BD00088E50E94C415882311F090E00AC089E5A9
:103BE0000E94C4158111F9CF8AE50E94C41591E0A5
:103BF00098279093130291110C946E3388E50E94DC
:103C0000C41581110C946E338091130281110C94B0
:103C1000743389E50E94C41581110C94743388E5CE
:103C20000E94C4158823D1F00E94B915672B682B18
:103C3000692BA1F00E94B01520919E0630919F063D
:103C40004091A0065091A1060E94737E6093AA063F
:103C50007093AB068093AC069093AD0689E50E9405
:103C6000C4158823D1F00E94B915672B682B692BE6
:103C7000A1F00E94B0152091A2063091A3064091B8
:103C8000A4065091A5060E94737E6093AE067093C1
:103C9000AF068093B0069093B106809113028823FB
:103CA00009F4ACC080E090E0AAE9B2E480935B063E
:103CB00090935C06A0935D06B0935E0680E090E072
:103CC000ACE4B2E480935F0690936006A093610633
:103CD000B0936206E7E8F8E0649129EF6202B00170
:103CE0001124882777FD8095982F0E94EE7F60939E
:103CF000630670936406809365069093660680E081
:103D000090E0AAEFB5E480930F0290931002A09385
:103D10001102B09312021092B2061092B3061092E2
:103D2000B4061092B5062091AE063091AF064091D0
:103D3000B0065091B1066091AA067091AB068091D1
:103D4000AC069091AD06B6EBCB2EB6E0DB2EE12CA7
:103D5000F12C87010E942B4B80900F029090100253
:103D6000A0901102B0901202E0906306F0906406F9
:103D7000009165061091660620915F0630916006FD
:103D8000409161065091620660915B0670915C06FD
:103D900080915D0690915E06EAE8F6E0FF93EF936E
:103DA000E7E6CE2EE6E0DE2E0E94FE3F0E94796915
:103DB00080915B0690915C06A0915D06B0915E06D5
:103DC0008093AA069093AB06A093AC06B093AD0681
:103DD00080915F0690916006A0916106B0916206A5
:103DE0008093AE069093AF06A093B006B093B10651
:103DF00082E090E00E9457110F900F908AE50E9498
:103E0000C415882309F4F1C080918F06882309F432
:103E1000ACC080919006882309F4A7C08090AA06C0
:103E20009090AB06A090AC06B090AD0626E636E6C4
:103E300046EC51E4C501B4010E94737E6B017C0124
:103E400020E030E0A9010E944F8187FDADC020E055
:103E500030E04DE453E4C701B6010E944C7F1816D0
:103E60000CF4A2C04090AE065090AF066090B00631
:103E70007090B10620E030E04EE452E4C301B2019C
:103E80000E94737E6B017C0120E030E0A9010E945A
:103E90004F8187FD89C020E030E04DE453E4C70145
:103EA000B6010E944C7F18160CF47EC01092B20628
:103EB0001092B3061092B4061092B506F6EBCF2E10
:103EC000F6E0DF2EE12CF12C8701A3019201C50160
:103ED000B4010E942B4BE7E8F8E0649139EF6302EC
:103EE000B0011124882777FD8095982F0E94EE7FDE
:103EF0007B018C0160936306709364068093650672
:103F0000909366068090980C9090990CA0909A0CD3
:103F1000B0909B0C80920F0290921002A09211021E
:103F2000B092120220915F063091600640916106C6
:103F30005091620660915B0670915C0680915D060F
:103F400090915E06EAE8F6E0FF93EF93A7E6CA2EAB
:103F5000A6E0DA2E0E94FE3F0E94796982E090E09E
:103F60000E9457110F900F9040C0E4ECF8E084914C
:103F7000882341F09091C00095FFFCCF8093C6004C
:103F80003196F5CFEEE6F6E08491882341F09091EA
:103F9000C00095FFFCCF8093C6003196F5CF80918D
:103FA000C00085FFFCCF1EC0E4ECF8E084918823BC
:103FB00041F09091C00095FFFCCF8093C6003196F0
:103FC000F5CFEDE5F6E08491882341F09091C000B3
:103FD00095FFFCCF8093C6003196F5CF8091C0004D
:103FE00085FFFCCF8AE08093C6008AE50E94C41555
:103FF0008823D1F00E94B915672B682B692BA1F09B
:104000000E94B0152091A6063091A7064091A806FF
:104010005091A9060E94737E6093B2067093B30616
:104020008093B4069093B5068091130281110C948D
:104030007A338AE50E94C41581110C947A33E0909A
:10404000B206F090B3060091B4061091B506209127
:10405000AE063091AF064091B0065091B106609126
:10406000AA067091AB068091AC069091AD06E6EB86
:10407000CE2EE6E0DE2E0E942B4B80E00E94AD614A
:104080008091470690914806A0914906B0914A0652
:1040900080930F0290931002A0931102B09312022A
:1040A0008091BA069091BB06909347028093460296
:1040B0000E94BC7B6093A6047093A7048093A8041D
:1040C0009093A9040E94A6610C946B3380918F0693
:1040D000882321F080919006811123C0E4ECF8E060
:1040E0008491882341F09091C00095FFFCCF80938C
:1040F000C6003196F5CFEBE4F6E08491882341F0D9
:104100009091C00095FFFCCF8093C6003196F5CF0B
:104110008091C00085FFFCCF8AE08093C6000C949C
:104120006B330E94796988E692E00E949B77CE010A
:10413000875A9F4F0E94B44A6D966CAD7DAD8EAD8F
:104140009FAD6D976093AA067093AB068093AC0603
:104150009093AD06A1962CAD3DAD4EAD5FADA19750
:104160002093AE063093AF064093B0065093B1064D
:10417000A596ECACFDAC0EAD1FADA597E092B206D6
:10418000F092B3060093B4061093B506B6EBCB2EAF
:10419000B6E0DB2E0E942B4B0E949B0F80915002B9
:1041A00090915102A0915202B091530280930F025C
:1041B00090931002A0931102B0931202612C712C03
:1041C000C656DF4F19821882CA59D0401CE3212EEF
:1041D000312C86E990E0CE56DF4F99838883C2590F
:1041E000D040AEE1B0E0C157DF4FB983A883CF58CC
:1041F000D040CF56DF4F1882C159D0409E012F5F6B
:104200003F4F260D371DC357DF4F39832883CD58C5
:10421000D040C656DF4F88819981CA59D040C856D0
:10422000DF4F99838883C859D040412C512CC1015C
:10423000AA2797FDA095BA2FC056DF4F8883998390
:10424000AA83BB83C05AD040A1E3B0E0AC0FBD1F2E
:10425000A60DB71DCC55DF4FB983A883C45AD040F3
:10426000C856DF4FE881F981C859D040EF2B89F05B
:1042700020E030E040E050E46091B2067091B30677
:104280008091B4069091B5060E94737E6B017C010B
:1042900006C0C12CD12CA0EEEA2EA0E4FA2EC05606
:1042A000DF4F688179818A819B81C05AD0400E940A
:1042B000EE7FCC56DF4F688379838A839B83C45912
:1042C000D040C157DF4F28813981CF58D040B90144
:1042D000882777FD8095982F0E94EE7F4B015C0127
:1042E0002091AE063091AF064091B0065091B106D4
:1042F0006091AA067091AB068091AC069091AD06D4
:10430000870176010E94EC0FC090B206D090B306F0
:10431000E090B406F090B50620E030E04EE452E4C0
:10432000CC56DF4F688179818A819B81C459D04006
:104330000E94727EC456DF4F688379838A839B8391
:10434000CC59D04026E636E646EC51E4C501B4012E
:104350000E94727E87017601C456DF4F2881398121
:104360004A815B81CC59D0400E94EC0F0E94270FFC
:104370000E945410C090B206D090B306E090B406EC
:10438000F090B5060E94610FE0E3F4E08491882389
:1043900041F09091C00095FFFCCF8093C60031960C
:1043A000F5CFEBE2F4E08491882341F09091C000D6
:1043B00095FFFCCF8093C6003196F5CF22E030E028
:1043C000B501A40180EC96E00E945E37E6E2F4E0DD
:1043D0008491882341F09091C00095FFFCCF809399
:1043E000C6003196F5CF22E030E0CC56DF4F488151
:1043F00059816A817B81C459D04080EC96E00E944B
:104400005E37E1E2F4E08491882341F09091C000AE
:1044100095FFFCCF8093C6003196F5CF22E030E0C7
:10442000B701A60180EC96E00E945E37EFE1F4E070
:104430008491882341F09091C00095FFFCCF809338
:10444000C6003196F5CFCC55DF4FE881F981C45ACB
:10445000D040E40DF51DC082D182E282F382C357C1
:10446000DF4FA881B981CD58D0408D929D92AD92F9
:10447000BD92C357DF4FB983A883CD58D040CC56E7
:10448000DF4F88819981AA81BB81C459D040C3572D
:10449000DF4FE881F981CD58D04084879587A68782
:1044A000B78780E090E0A0E8BFE3848F958FA68F68
:1044B000B78FC856DF4F28813981C859D0402F5F48
:1044C0003F4FC856DF4F39832883C859D040C15762
:1044D000DF4F88819981CF58D040CE56DF4FA881D9
:1044E000B981C259D0408A0F9B1FC157DF4F9983B2
:1044F0008883CF58D040B4E04B0E511CE8E04E16F4
:10450000510409F0ADCEC656DF4F28813981CA5912
:10451000D0402E5F3F4FC656DF4F39832883CA599C
:10452000D04038E7230E311C8CE2281681E0380693
:10453000B9F1CF56DF4FB881C159D040BB23B1F09C
:10454000E6E9F0E0CE56DF4FF983E883C259D04068
:104550002EE130E0C157DF4F39832883CF58D04058
:10456000CF56DF4F1882C159D04016C08AE69FEF60
:10457000CE56DF4F99838883C259D040A4EBB0E078
:10458000C157DF4FB983A883CF58D040B1E0CF5691
:10459000DF4FB883C159D040E8E06E0E711C2ECEBB
:1045A0000E94C60F9E012F5C3F4FAE014F5F5F4FD1
:1045B00063E070E084E090E00E945D5D3C01E5E333
:1045C000F6E08491882341F09091C00095FFFCCFE4
:1045D0008093C6003196F5CFD3014D915D916D91D9
:1045E0007C9122E030E080EC96E00E945E37E0E3D0
:1045F000F6E08491882341F09091C00095FFFCCFB4
:104600008093C6003196F5CFF301448155816681D0
:10461000778122E030E080EC96E00E945E37EBE2AA
:10462000F6E08491882341F09091C00095FFFCCF83
:104630008093C6003196F5CFD30118964D915D91C8
:104640006D917C911B9722E030E080EC96E00E9417
:104650005E378091C00085FFFCCF8AE08093C60062
:10466000F3010481158126813781305840815181C1
:104670006281738170585E01FDE4AF0EB11CC12CE4
:10468000D12C80E8E82E8FE3F82EC5010E944F75EB
:104690006EE573E0C5010E94CA76D501CC901196F3
:1046A000DC9011971296EC9012971396FC9013974A
:1046B00014960C91149715961C91159716962C919B
:1046C000169717963C91179718964C91189719962C
:1046D0005C9119971A966C911A971B967C91CE0152
:1046E00087599F4F0E94C57784E2FE01E759FF4F2B
:1046F000A8E6B2E001900D928A95E1F74E01B1E48F
:104700008B0E911CC4010E94B44AF4016081718136
:10471000828193816093AA067093AB068093AC0666
:104720009093AD0629962CAD3DAD4EAD5FAD29976A
:104730002093AE063093AF064093B0065093B10677
:10474000E0908B06F0908C0600918D0610918E06FD
:10475000E092B206F092B3060093B4061093B50649
:10476000E6EBCE2EE6E0DE2E0E942B4BC3010E942C
:1047700028840E94796982E00E94D1690E94EE7FBC
:104780002091880C3091890C40918A0C50918B0CAF
:104790000E94537F6B017C018E010B591F4F26E64F
:1047A00036E646EC51E46091AA067091AB06809122
:1047B000AC069091AD060E94737ED8016D937D93F7
:1047C0008D939C93139720E030E04EE452E4609187
:1047D000AE067091AF068091B0069091B1060E942E
:1047E000737EF50160837183828393838091B20627
:1047F0009091B306A091B406B091B506F401808300
:104800009183A283B3839F928F92BF92AF921F93A3
:104810000F932DB73EB7245231090FB6F8943EBF1F
:104820000FBE2DBFADB7BEB7119684E2E8E6F2E049
:1048300001900D928A95E1F70E942E77A7019601CB
:10484000D4016D917D918D919C910E94727E2091F9
:10485000B2063091B3064091B4065091B5060E945D
:10486000737E7B018C016093B2067093B3068093D4
:10487000B4069093B5060FB6F894DEBF0FBECDBF59
:104880002091AE063091AF064091B0065091B1062E
:104890006091AA067091AB068091AC069091AD062E
:1048A000F6EBCF2EF6E0DF2E0E942B4B0C946B33F1
:1048B0009091C00095FFFCCF8093C6003196849103
:1048C0008111F6CFE2E2F6E08491882341F09091E5
:1048D000C00095FFFCCF8093C6003196F5CF409184
:1048E000AA065091AB066091AC067091AD0622E02D
:1048F00030E080EC96E00E945E37EDE1F6E08491D6
:10490000882341F09091C00095FFFCCF8093C600B2
:104910003196F5CF4091AE065091AF066091B0064A
:104920007091B10622E030E080EC96E00E945E37A4
:10493000E8E1F6E08491882341F09091C00095FF72
:10494000FCCF8093C6003196F5CF4091B2065091CE
:10495000B3066091B4067091B50622E030E080ECB9
:1049600096E00E945E37E6E1F6E08491882341F00C
:104970009091C00095FFFCCF8093C6003196F5CF93
:104980000E94C60F0E94610F0C946B3310923A067E
:104990000C946B3381E080933A060C946B3385E47E
:1049A0000E94C415811102C00E947969F2E26F2E43
:1049B000F4E07F2EAEE98A2EA6E09A2EBAEAAB2E5C
:1049C000B6E0BB2E512CD3018D913D010E94C41540
:1049D0008823D9F1B3E05B120CC00E94B015F50139
:1049E000608371838283938386EB96E00E940C4CF4
:1049F0002CC00E94B015D4012D913D914D915C9138
:104A00000E94737EF5016083718382839383E090BB
:104A1000B206F090B3060091B4061091B50620914D
:104A2000AE063091AF064091B0065091B10660914C
:104A3000AA067091AB068091AC069091AD06E6EBAC
:104A4000CE2EE6E0DE2E0E942B4B5394F4E08F0E28
:104A5000911C24E0A20EB11C34E05312B4CF0C948C
:104A60006B338DE40E94C415882311F40C949C329E
:104A70000E94B0150E94BB7F6E3B710509F40DC406
:104A80000CF091C06836710509F413C20CF051C0E6
:104A90006135710509F437C5E4F46F31710509F426
:104AA0003CC154F46131710509F42AC162317105C8
:104AB00009F442C50C946B336A32710509F4B2C132
:104AC0006035710511F00C946B33269A2E980C9476
:104AD0006B336435710509F42FC574F462357105C3
:104AE00009F426C56335710511F00C946B3381E030
:104AF0008093BF060C946B336535710509F454C57A
:104B00006C35710511F00C946B3322E234E0C3571D
:104B1000DF4F39832883CD58D04000E81CE0B0E94E
:104B20008B2EBCE09B2E84E4A82E8CE0B82E312C7A
:104B3000B8C56237710509F4EBC5D4F46B3671055D
:104B400009F4DBC454F46936710509F4E1C16A362D
:104B5000710509F4A2C40C946B336D36710509F428
:104B6000E4C26037710511F00C946B330E94D418C5
:104B70006737710509F4C1C054F46337710509F44E
:104B8000AAC56537710509F4B4C50C946B33693750
:104B9000710509F4A0C60CF49AC66C38710509F4C5
:104BA000A6C10C946B336F3281E0780711F40C943A
:104BB000E4300CF04BC06E3C710511F40C94BB2E2C
:104BC0001CF56B3C710511F40C94212E8CF4683C9F
:104BD000710509F477C7693C710511F00C946B33CA
:104BE00002E214E0A0E7EA2EACE0FA2E0C94072EC5
:104BF0006C3C710511F40C943D2E6D3C710511F463
:104C00000C945D2E0C946B33623E710511F40C9480
:104C10000C2F64F46C3D710511F40C94D72E6D3D8E
:104C2000710511F40C94E62E0C946B336D32A1E0F7
:104C30007A0711F40C94143014F00C94D6306831C7
:104C4000714011F40C94632F0C946B336639F1E0CE
:104C50007F0711F40C948D311CF5623931E0730734
:104C600011F40C941F317CF4603991E0790711F450
:104C70000C941C316139714011F00C946B330E941B
:104C8000270F0C946B336439B1E07B0711F40C945B
:104C900022316539714011F40C9454310C946B330A
:104CA000663FF1E07F0711F40C94B2318CF4673960
:104CB00031E0730711F40C949031653F714011F0AD
:104CC0000C946B330E94D30D0E94160B0C946B3323
:104CD000633593E0790711F40C94B531673EA3E096
:104CE0007A0711F40C948732673F714011F00C94ED
:104CF0006B330E94160B0C946B33EAE6F3E0F5C5B8
:104D00005F988A989FB7F894809108018E7F80936E
:104D100008019FBF12980C946B330E94BC7B609378
:104D20009A0470939B0480939C0490939D0400913B
:104D30009E0410919F042091A0043091A104601B57
:104D4000710B820B930B28EE33E040E050E00E94A1
:104D50001583CA01B9012CE330E040E050E00E9425
:104D600015837F936F933F932F9387E096E09F93F4
:104D70008F93CE0101969F938F930E949E87E4ECC0
:104D8000F8E084910FB6F894DEBF0FBECDBFE4EC1F
:104D9000F8E0882349F09091C00095FFFCCF809304
:104DA000C60031968491F5CFFE013196819188231A
:104DB00039F09091C00095FFFCCF8093C600F6CFEC
:104DC0008091C00085FFFCCF8AE08093C60080916F
:104DD0001F0C882311F40C946B3310921F0C00915C
:104DE0008A0610E0000F111F0E54124FD8016D916A
:104DF0007C91882777FD8095982F0E94EE7F2091E7
:104E000060023091610240916202509163020E94FF
:104E10004F81181614F00C946B33F8011182108234
:104E20000C946B3383E50E94C415882311F40C9411
:104E30006B330E94B0150E94BB7FF62EE72E862FA3
:104E40009E2D8C0180E50E94C415882331F00F3F10
:104E5000110509F010F40C9496330DE010E0EAEE21
:104E6000F3E0819191918017910711F40C946B33C9
:104E700024E0E232F207A9F70930110539F48F2D49
:104E80009E2D909389068093880604C017FF02C068
:104E90000C946B3361E0802F0E94887D6F2D802FF2
:104EA0000E94C17D6F2D7E2D802F0E94727C0C94FC
:104EB0006B3388E690E00E94261C81110C946B33C2
:104EC00083E50E94C415882371F0009199040E9423
:104ED000B01510E0000F111F0E54124F0E94BB7F3F
:104EE000D8016D937C930E94036F0C946B3383E520
:104EF0000E94C415882311F40C946B330E94B015E2
:104F00000E94BB7F7093B10D6093B00D0C946B3316
:104F100089E690E00E94261C81110C946B33E1E03D
:104F2000F6E08491882341F09091C00095FFFCCF7A
:104F30008093C6003196F5CFE0919904B4E0EB9FE1
:104F4000F0011124E655F24F408151816281738155
:104F500021E030E080EC96E00E945E37EEEFF5E075
:104F60008491882341F09091C00095FFFCCF8093FD
:104F7000C6003196F5CFE0919904F0E0EE0FFF1FE7
:104F8000EE54F24F60817181882777FD8095982FCC
:104F90000E94EE7FAB01BC0121E030E080EC96E0A6
:104FA0000E945E37EAEFF5E08491882341F090910A
:104FB000C00095FFFCCF8093C6003196F5CF40919D
:104FC000A40D5091A50D6091A60D7091A70D21E043
:104FD00030E080EC96E00E945E37E7EFF5E08491E8
:104FE000882341F09091C00095FFFCCF8093C600CC
:104FF0003196F5CF6091B00D7091B10D882777FD96
:105000008095982F0E94EE7FAB01BC0121E030E03B
:1050100080EC96E00E945E37E4EFF5E0849188230F
:1050200041F09091C00095FFFCCF8093C60031966F
:10503000F5CF4AE050E060E070E080EC96E00E943E
:105040008836E2EFF5E08491882341F09091C0002A
:1050500095FFFCCF8093C6003196F5CF4091AA0D05
:105060005091AB0D6091AC0D7091AD0D21E030E031
:1050700080EC96E00E945E37EFEEF5E084918823A5
:1050800041F09091C00095FFFCCF8093C60031960F
:10509000F5CF6091B20D7091B30D882777FD8095A3
:1050A000982F0E94EE7FAB01BC0121E030E080EC44
:1050B00096E00E945E37EBEEF5E08491882341F0A4
:1050C0009091C00095FFFCCF8093C6003196F5CF3C
:1050D0008091990490E00E948C6B4AE050E0BC0102
:1050E00080EC96E00E948836E6EEF5E08491882315
:1050F00041F09091C00095FFFCCF8093C60031969F
:10510000F5CF8FEF9FEF0E948C6B4AE050E0BC011F
:1051100080EC96E00E9488368091C00085FFFCCF2D
:105120008AE08093C6000C94E9348DE690E00E94FA
:10513000261C81110C946B3310921F0C83E50E9486
:10514000C415882391F0009199040E94B01510E0D5
:10515000000F111F0E54124F0E94BB7FF801718384
:10516000608381E080930A0215C082E50E94C41525
:10517000882381F0009199040E94B01510E0000F7F
:10518000111F0E54124F0E94BB7FD8016D937C9368
:1051900010920A0283E50E94C415882351F00E94F0
:1051A000B0156093600270936102809362029093E5
:1051B000630282E40E94C415882351F00E94B01556
:1051C0006093640270936502809366029093670215
:1051D00086E40E94C415882369F00E94B01560938C
:1051E0005C0270935D0280935E0290935F0281E0A7
:1051F00080931F0C0E94036F0E94BC7B4B015C01DB
:105200000091990410E0F801EE0FFF1FEE54F24FE9
:1052100060817181882777FD8095982F0E94EE7FAD
:10522000F801EE0FFF1FEE0FFF1FE655F24F11E0E2
:1052300020813181428153810E944F8118160CF0E8
:1052400010E01093880410928706CC24CA94DC2CBA
:105250007601F8EE4F2EF3E05F2E612C712CAAE060
:105260003A2E8091870681110C949D33BFEFCB16A7
:10527000DB06EB06FB0611F40C94B233F7FE02C01A
:105280000C949D330E94BC7B6C197D096031774280
:1052900010F40C94B2330C949D3383E50E94C41532
:1052A000882361F00E94B0150E94BB7F7093B10DFE
:1052B0006093B00D81E080930A020FC082E50E94E6
:1052C000C415882351F00E94B0150E94BB7F7093D3
:1052D000B10D6093B00D10920A020E94BC7B4B018D
:1052E0005C01109287066091B00D7091B10D882716
:1052F00077FD8095982F0E94EE7F11E02091A40DFC
:105300003091A50D4091A60D5091A70D0E944F819F
:1053100018160CF010E01093880408ED15E094EDD9
:10532000E92E95E0F92E20EDC22E25E0D22E3AE0AE
:10533000732E809188046091B00D7091B10D882317
:1053400009F488C080918706811184C0882777FD81
:105350008095982F0E94EE7F2091A40D3091A50D8D
:105360004091A60D5091A70D0E944F8118160CF088
:1053700088C00E94BC7B681979098A099B09693E2B
:1053800073408105910508F460C0E0918A0624E02D
:10539000E29FF0011124E655F24F40815181628174
:1053A0007381F8018491E8EDF5E0882349F090914C
:1053B000C00095FFFCCF8093C60031968491F5CF55
:1053C00022E030E080EC96E00E945E37F7018491A5
:1053D000E4EDF5E0882349F09091C00095FFFCCF03
:1053E0008093C60031968491F5CF60918A0670E073
:1053F0004AE050E080EC96E00E948836F601849105
:10540000E0EDF5E0882349F09091C00095FFFCCFD6
:105410008093C60031968491F5CF4091A40D5091B0
:10542000A50D6091A60D7091A70D21E030E080ECF4
:1054300096E00E945E378091C00085FFFCCF70929D
:10544000C6000E94BC7B4B015C010E94D76B0E948E
:10545000741B6FCF882777FD8095982F0E94EE7F71
:105460002091A40D3091A50D4091A60D5091A70D4E
:105470000E944C7F87FF05C080910A02882309F4AF
:1054800078CF0E94BC7B6093A6047093A70480939E
:10549000A8049093A9040C946B3383E50E94C4156F
:1054A000882319F10E94B01520E030E0A9010E9484
:1054B0004C7F87FD0FC00E94B01520E030E04FE721
:1054C00053E40E944F81181644F00E94B0150E94C8
:1054D000BB7F05C060E070E002C06FEF70E07093CA
:1054E0008906609388060C946B338FEF90E090935D
:1054F0008906809388060C946B331092890610926B
:1055000088060C946B330E94046F0E947969129A8A
:105510000E94F269109289061092880668EE73E084
:1055200080E090E00E94EB7B269A2E9A0C946B33DD
:105530001092BF060C946B3383E50E94C415882338
:10554000A1F00E94B01520E030E04AE754E40E9448
:1055500021820E94C07F60930B0270930C028093A3
:105560000D0290930E020C946B3388E50E94C415D3
:1055700081110C94C03489E50E94C41581110C94EA
:10558000C0348AE50E94C41581110C94C03485E4AE
:105590000E94C41581110C94C0340E947969129A3A
:1055A0000E94F2690C946B3383E50E94C415882332
:1055B00011F40C946B330E94B01520E030E04AE700
:1055C00054E40E9421820E94C07F6093A2047093E1
:1055D000A3048093A4049093A5040C946B33B3E0CC
:1055E0003B1271C00E94B0156B017C0120E030E0DD
:1055F00040EA51E40E944C7F87FF3FC0A70196011B
:10560000F80160817181828193810E94537F2B0117
:105610003C019B01AC016091580C7091590C809138
:105620005A0C90915B0C0E9421826093580C7093ED
:10563000590C80935A0C90935B0CA3019201D401F6
:105640006D917D918D919C910E942182F4016083E6
:10565000718382839383D5016D917D918D919C910E
:105660000E94EC7FA30192010E9421820E94C07FD0
:10567000F5016083718382839383D801CD92DD929B
:10568000ED92FC92139733940C5F1F4FF4E08F0E52
:10569000911C24E0A20EB11C34E0331611F40C94DA
:1056A0006B33C357DF4FA881B981CD58D0408D915E
:1056B000C357DF4FB983A883CD58D0400E94C4158B
:1056C000882309F38CCF0E94B015F80160837183A1
:1056D00082839383D8CFE3E0F5E08491882309F4B3
:1056E000FAC79091C00095FFFCCF8093C600319619
:1056F000F4CF8091AA049091AB046AE270E0059621
:105700000E948A87009709F4E6C7DC011C92E3C770
:10571000E0E0F5E08491882341F09091C00095FF8E
:10572000FCCF8093C6003196F5CF4091AA065091E8
:10573000AB066091AC067091AD0622E030E080ECE3
:1057400096E00E945E37ECEFF4E08491882341F00C
:105750009091C00095FFFCCF8093C6003196F5CFA5
:105760004091AE065091AF066091B0067091B106BF
:1057700022E030E080EC96E00E945E37E8EFF4E053
:105780008491882341F09091C00095FFFCCF8093D5
:10579000C6003196F5CF4091B2065091B3066091A4
:1057A000B4067091B50622E030E080EC96E00E94ED
:1057B0005E37E4EFF4E08491882341F09091C000DB
:1057C00095FFFCCF8093C6003196F5CF4091B60689
:1057D0005091B7066091B8067091B90622E030E0AA
:1057E00080EC96E00E945E37E9EEF4E08491882335
:1057F00041F09091C00095FFFCCF8093C600319698
:10580000F5CF0E94D1690E94EE7F2091800C3091EB
:10581000810C4091820C5091830C0E94537FAB010C
:10582000BC0122E030E080EC96E00E945E37E5EEBD
:10583000F4E08491882341F09091C00095FFFCCF63
:105840008093C6003196F5CF81E00E94D1690E9415
:10585000EE7F2091840C3091850C4091860C509104
:10586000870C0E94537FAB01BC0122E030E080EC4A
:1058700096E00E945E37E1EEF4E08491882341F0E7
:105880009091C00095FFFCCF8093C6003196F5CF74
:1058900082E00E94D1690E94EE7F2091880C3091B5
:1058A000890C40918A0C50918B0C0E94537FAB0164
:1058B000BC0122E030E080EC96E00E945E378091EF
:1058C000C00085FFFCCF8AE08093C60004C780E05B
:1058D0000E94AD6100C781E00E94AD61FCC690915D
:1058E000C00095FFFCCF8093C60081918111F7CF56
:1058F0008091C00085FFFCCF8AE08093C600E9ED6F
:10590000F4E08491882341F09091C00095FFFCCF92
:105910008093C6003196F5CF659B03C0EFE4F3E0BA
:1059200009C0E9E5F3E006C09091C00095FFFCCF07
:105930008093C60081918111F7CF8091C00085FFCF
:10594000FCCF8AE08093C600E1EDF4E084918823E7
:1059500041F09091C00095FFFCCF8093C600319636
:10596000F5CF649903C0EFE4F3E009C0E9E5F3E0A3
:1059700006C09091C00095FFFCCF8093C600819136
:105980008111F7CF8091C00085FFFCCF8AE0809322
:10599000C600E9ECF4E08491882341F09091C000C6
:1059A00095FFFCCF8093C6003196F5CF809103011F
:1059B00081FF03C0EFE4F3E009C0E9E5F3E006C0CE
:1059C0009091C00095FFFCCF8093C600819181111A
:1059D000F7CF8091C00085FFFCCF8AE08093C6009E
:1059E000E1ECF4E08491882341F09091C00095FFB0
:1059F000FCCF8093C6003196F5CF8091030180FDE6
:105A000003C0EFE4F3E009C0E9E5F3E006C09091DC
:105A1000C00095FFFCCF8093C60081918111F7CF24
:105A20008091C00085FFFCCF8AE08093C600E9EB3F
:105A3000F4E08491882341F09091C00095FFFCCF61
:105A40008093C6003196F5CF4B9B03C0EFE4F3E0A3
:105A500009C0E9E5F3E006C09091C00095FFFCCFD6
:105A60008093C60081918111F7CF8091C00085FF9E
:105A7000FCCF8AE08093C600E1EBF4E084918823B8
:105A800041F09091C00095FFFCCF8093C600319605
:105A9000F5CF4A9903C0EFE4F3E009C0E9E5F3E08C
:105AA00006C09091C00095FFFCCF8093C600819105
:105AB0008111F7CF8091C00085FFFCCF8AE08093F1
:105AC000C60009C684E40E94C415882309F403C6ED
:105AD0000E94B01520E030E040E05FE30E942182A8
